{
	"contracts/Agenda.sol": {
		"Agenda3": {
			"abi": [
				{
					"inputs": [
						{
							"internalType": "address",
							"name": "",
							"type": "address"
						},
						{
							"internalType": "address",
							"name": "",
							"type": "address"
						}
					],
					"name": "agenda",
					"outputs": [
						{
							"internalType": "string",
							"name": "",
							"type": "string"
						}
					],
					"stateMutability": "view",
					"type": "function"
				},
				{
					"inputs": [
						{
							"internalType": "address",
							"name": "contact",
							"type": "address"
						},
						{
							"internalType": "string",
							"name": "contactName",
							"type": "string"
						}
					],
					"name": "createContact",
					"outputs": [],
					"stateMutability": "nonpayable",
					"type": "function"
				},
				{
					"inputs": [
						{
							"internalType": "address",
							"name": "contact",
							"type": "address"
						}
					],
					"name": "deleteContact",
					"outputs": [],
					"stateMutability": "nonpayable",
					"type": "function"
				},
				{
					"inputs": [
						{
							"internalType": "address",
							"name": "contact",
							"type": "address"
						}
					],
					"name": "getContact",
					"outputs": [
						{
							"internalType": "string",
							"name": "",
							"type": "string"
						}
					],
					"stateMutability": "view",
					"type": "function"
				}
			],
			"devdoc": {
				"kind": "dev",
				"methods": {},
				"version": 1
			},
			"evm": {
				"assembly": "    /* \"contracts/Agenda.sol\":438:959  contract Agenda3 {... */\n  mstore(0x40, 0x80)\n  callvalue\n  dup1\n  iszero\n  tag_1\n  jumpi\n  revert(0x00, 0x00)\ntag_1:\n  pop\n  dataSize(sub_0)\n  dup1\n  dataOffset(sub_0)\n  0x00\n  codecopy\n  0x00\n  return\nstop\n\nsub_0: assembly {\n        /* \"contracts/Agenda.sol\":438:959  contract Agenda3 {... */\n      mstore(0x40, 0x80)\n      callvalue\n      dup1\n      iszero\n      tag_1\n      jumpi\n      revert(0x00, 0x00)\n    tag_1:\n      pop\n      jumpi(tag_2, lt(calldatasize, 0x04))\n      shr(0xe0, calldataload(0x00))\n      dup1\n      0x1046bc68\n      eq\n      tag_3\n      jumpi\n      dup1\n      0x3e1829e3\n      eq\n      tag_4\n      jumpi\n      dup1\n      0x644ae877\n      eq\n      tag_5\n      jumpi\n      dup1\n      0xf96a181e\n      eq\n      tag_6\n      jumpi\n    tag_2:\n      revert(0x00, 0x00)\n        /* \"contracts/Agenda.sol\":793:956  function deleteContact(address contact) public {... */\n    tag_3:\n      tag_7\n      0x04\n      dup1\n      calldatasize\n      sub\n      dup2\n      add\n      swap1\n      tag_8\n      swap2\n      swap1\n      tag_9\n      jump\t// in\n    tag_8:\n      tag_10\n      jump\t// in\n    tag_7:\n      stop\n        /* \"contracts/Agenda.sol\":531:659  function createContact(address contact, string memory contactName)public{... */\n    tag_4:\n      tag_11\n      0x04\n      dup1\n      calldatasize\n      sub\n      dup2\n      add\n      swap1\n      tag_12\n      swap2\n      swap1\n      tag_13\n      jump\t// in\n    tag_12:\n      tag_14\n      jump\t// in\n    tag_11:\n      stop\n        /* \"contracts/Agenda.sol\":462:524  mapping (address => mapping (address => string)) public agenda */\n    tag_5:\n      tag_15\n      0x04\n      dup1\n      calldatasize\n      sub\n      dup2\n      add\n      swap1\n      tag_16\n      swap2\n      swap1\n      tag_17\n      jump\t// in\n    tag_16:\n      tag_18\n      jump\t// in\n    tag_15:\n      mload(0x40)\n      tag_19\n      swap2\n      swap1\n      tag_20\n      jump\t// in\n    tag_19:\n      mload(0x40)\n      dup1\n      swap2\n      sub\n      swap1\n      return\n        /* \"contracts/Agenda.sol\":664:788  function getContact(address contact) public view returns (string memory) {... */\n    tag_6:\n      tag_21\n      0x04\n      dup1\n      calldatasize\n      sub\n      dup2\n      add\n      swap1\n      tag_22\n      swap2\n      swap1\n      tag_9\n      jump\t// in\n    tag_22:\n      tag_23\n      jump\t// in\n    tag_21:\n      mload(0x40)\n      tag_24\n      swap2\n      swap1\n      tag_20\n      jump\t// in\n    tag_24:\n      mload(0x40)\n      dup1\n      swap2\n      sub\n      swap1\n      return\n        /* \"contracts/Agenda.sol\":793:956  function deleteContact(address contact) public {... */\n    tag_10:\n        /* \"contracts/Agenda.sol\":903:904  0 */\n      0x00\n        /* \"contracts/Agenda.sol\":864:870  agenda */\n      0x00\n        /* \"contracts/Agenda.sol\":864:882  agenda[msg.sender] */\n      0x00\n        /* \"contracts/Agenda.sol\":871:881  msg.sender */\n      caller\n        /* \"contracts/Agenda.sol\":864:882  agenda[msg.sender] */\n      0xffffffffffffffffffffffffffffffffffffffff\n      and\n      0xffffffffffffffffffffffffffffffffffffffff\n      and\n      dup2\n      mstore\n      0x20\n      add\n      swap1\n      dup2\n      mstore\n      0x20\n      add\n      0x00\n      keccak256\n        /* \"contracts/Agenda.sol\":864:891  agenda[msg.sender][contact] */\n      0x00\n        /* \"contracts/Agenda.sol\":883:890  contact */\n      dup4\n        /* \"contracts/Agenda.sol\":864:891  agenda[msg.sender][contact] */\n      0xffffffffffffffffffffffffffffffffffffffff\n      and\n      0xffffffffffffffffffffffffffffffffffffffff\n      and\n      dup2\n      mstore\n      0x20\n      add\n      swap1\n      dup2\n      mstore\n      0x20\n      add\n      0x00\n      keccak256\n        /* \"contracts/Agenda.sol\":858:899  bytes(agenda[msg.sender][contact]).length */\n      dup1\n      sload\n      tag_26\n      swap1\n      tag_27\n      jump\t// in\n    tag_26:\n      swap1\n      pop\n        /* \"contracts/Agenda.sol\":858:904  bytes(agenda[msg.sender][contact]).length != 0 */\n      sub\n        /* \"contracts/Agenda.sol\":850:905  require(bytes(agenda[msg.sender][contact]).length != 0) */\n      tag_28\n      jumpi\n      revert(0x00, 0x00)\n    tag_28:\n        /* \"contracts/Agenda.sol\":922:928  agenda */\n      0x00\n        /* \"contracts/Agenda.sol\":922:940  agenda[msg.sender] */\n      0x00\n        /* \"contracts/Agenda.sol\":929:939  msg.sender */\n      caller\n        /* \"contracts/Agenda.sol\":922:940  agenda[msg.sender] */\n      0xffffffffffffffffffffffffffffffffffffffff\n      and\n      0xffffffffffffffffffffffffffffffffffffffff\n      and\n      dup2\n      mstore\n      0x20\n      add\n      swap1\n      dup2\n      mstore\n      0x20\n      add\n      0x00\n      keccak256\n        /* \"contracts/Agenda.sol\":922:949  agenda[msg.sender][contact] */\n      0x00\n        /* \"contracts/Agenda.sol\":941:948  contact */\n      dup3\n        /* \"contracts/Agenda.sol\":922:949  agenda[msg.sender][contact] */\n      0xffffffffffffffffffffffffffffffffffffffff\n      and\n      0xffffffffffffffffffffffffffffffffffffffff\n      and\n      dup2\n      mstore\n      0x20\n      add\n      swap1\n      dup2\n      mstore\n      0x20\n      add\n      0x00\n      keccak256\n      0x00\n        /* \"contracts/Agenda.sol\":915:949  delete agenda[msg.sender][contact] */\n      tag_29\n      swap2\n      swap1\n      tag_30\n      jump\t// in\n    tag_29:\n        /* \"contracts/Agenda.sol\":793:956  function deleteContact(address contact) public {... */\n      pop\n      jump\t// out\n        /* \"contracts/Agenda.sol\":531:659  function createContact(address contact, string memory contactName)public{... */\n    tag_14:\n        /* \"contracts/Agenda.sol\":641:652  contactName */\n      dup1\n        /* \"contracts/Agenda.sol\":612:618  agenda */\n      0x00\n        /* \"contracts/Agenda.sol\":612:630  agenda[msg.sender] */\n      0x00\n        /* \"contracts/Agenda.sol\":619:629  msg.sender */\n      caller\n        /* \"contracts/Agenda.sol\":612:630  agenda[msg.sender] */\n      0xffffffffffffffffffffffffffffffffffffffff\n      and\n      0xffffffffffffffffffffffffffffffffffffffff\n      and\n      dup2\n      mstore\n      0x20\n      add\n      swap1\n      dup2\n      mstore\n      0x20\n      add\n      0x00\n      keccak256\n        /* \"contracts/Agenda.sol\":612:639  agenda[msg.sender][contact] */\n      0x00\n        /* \"contracts/Agenda.sol\":631:638  contact */\n      dup5\n        /* \"contracts/Agenda.sol\":612:639  agenda[msg.sender][contact] */\n      0xffffffffffffffffffffffffffffffffffffffff\n      and\n      0xffffffffffffffffffffffffffffffffffffffff\n      and\n      dup2\n      mstore\n      0x20\n      add\n      swap1\n      dup2\n      mstore\n      0x20\n      add\n      0x00\n      keccak256\n        /* \"contracts/Agenda.sol\":612:652  agenda[msg.sender][contact]= contactName */\n      swap1\n      dup2\n      tag_32\n      swap2\n      swap1\n      tag_33\n      jump\t// in\n    tag_32:\n      pop\n        /* \"contracts/Agenda.sol\":531:659  function createContact(address contact, string memory contactName)public{... */\n      pop\n      pop\n      jump\t// out\n        /* \"contracts/Agenda.sol\":462:524  mapping (address => mapping (address => string)) public agenda */\n    tag_18:\n      mstore(0x20, 0x00)\n      dup2\n      0x00\n      mstore\n      mstore(0x20, keccak256(0x00, 0x40))\n      dup1\n      0x00\n      mstore\n      keccak256(0x00, 0x40)\n      0x00\n      swap2\n      pop\n      swap2\n      pop\n      pop\n      dup1\n      sload\n      tag_34\n      swap1\n      tag_27\n      jump\t// in\n    tag_34:\n      dup1\n      0x1f\n      add\n      0x20\n      dup1\n      swap2\n      div\n      mul\n      0x20\n      add\n      mload(0x40)\n      swap1\n      dup2\n      add\n      0x40\n      mstore\n      dup1\n      swap3\n      swap2\n      swap1\n      dup2\n      dup2\n      mstore\n      0x20\n      add\n      dup3\n      dup1\n      sload\n      tag_35\n      swap1\n      tag_27\n      jump\t// in\n    tag_35:\n      dup1\n      iszero\n      tag_36\n      jumpi\n      dup1\n      0x1f\n      lt\n      tag_37\n      jumpi\n      0x0100\n      dup1\n      dup4\n      sload\n      div\n      mul\n      dup4\n      mstore\n      swap2\n      0x20\n      add\n      swap2\n      jump(tag_36)\n    tag_37:\n      dup3\n      add\n      swap2\n      swap1\n      0x00\n      mstore\n      keccak256(0x00, 0x20)\n      swap1\n    tag_38:\n      dup2\n      sload\n      dup2\n      mstore\n      swap1\n      0x01\n      add\n      swap1\n      0x20\n      add\n      dup1\n      dup4\n      gt\n      tag_38\n      jumpi\n      dup3\n      swap1\n      sub\n      0x1f\n      and\n      dup3\n      add\n      swap2\n    tag_36:\n      pop\n      pop\n      pop\n      pop\n      pop\n      dup2\n      jump\t// out\n        /* \"contracts/Agenda.sol\":664:788  function getContact(address contact) public view returns (string memory) {... */\n    tag_23:\n        /* \"contracts/Agenda.sol\":722:735  string memory */\n      0x60\n        /* \"contracts/Agenda.sol\":754:760  agenda */\n      0x00\n        /* \"contracts/Agenda.sol\":754:772  agenda[msg.sender] */\n      0x00\n        /* \"contracts/Agenda.sol\":761:771  msg.sender */\n      caller\n        /* \"contracts/Agenda.sol\":754:772  agenda[msg.sender] */\n      0xffffffffffffffffffffffffffffffffffffffff\n      and\n      0xffffffffffffffffffffffffffffffffffffffff\n      and\n      dup2\n      mstore\n      0x20\n      add\n      swap1\n      dup2\n      mstore\n      0x20\n      add\n      0x00\n      keccak256\n        /* \"contracts/Agenda.sol\":754:781  agenda[msg.sender][contact] */\n      0x00\n        /* \"contracts/Agenda.sol\":773:780  contact */\n      dup4\n        /* \"contracts/Agenda.sol\":754:781  agenda[msg.sender][contact] */\n      0xffffffffffffffffffffffffffffffffffffffff\n      and\n      0xffffffffffffffffffffffffffffffffffffffff\n      and\n      dup2\n      mstore\n      0x20\n      add\n      swap1\n      dup2\n      mstore\n      0x20\n      add\n      0x00\n      keccak256\n        /* \"contracts/Agenda.sol\":747:781  return agenda[msg.sender][contact] */\n      dup1\n      sload\n      tag_40\n      swap1\n      tag_27\n      jump\t// in\n    tag_40:\n      dup1\n      0x1f\n      add\n      0x20\n      dup1\n      swap2\n      div\n      mul\n      0x20\n      add\n      mload(0x40)\n      swap1\n      dup2\n      add\n      0x40\n      mstore\n      dup1\n      swap3\n      swap2\n      swap1\n      dup2\n      dup2\n      mstore\n      0x20\n      add\n      dup3\n      dup1\n      sload\n      tag_41\n      swap1\n      tag_27\n      jump\t// in\n    tag_41:\n      dup1\n      iszero\n      tag_42\n      jumpi\n      dup1\n      0x1f\n      lt\n      tag_43\n      jumpi\n      0x0100\n      dup1\n      dup4\n      sload\n      div\n      mul\n      dup4\n      mstore\n      swap2\n      0x20\n      add\n      swap2\n      jump(tag_42)\n    tag_43:\n      dup3\n      add\n      swap2\n      swap1\n      0x00\n      mstore\n      keccak256(0x00, 0x20)\n      swap1\n    tag_44:\n      dup2\n      sload\n      dup2\n      mstore\n      swap1\n      0x01\n      add\n      swap1\n      0x20\n      add\n      dup1\n      dup4\n      gt\n      tag_44\n      jumpi\n      dup3\n      swap1\n      sub\n      0x1f\n      and\n      dup3\n      add\n      swap2\n    tag_42:\n      pop\n      pop\n      pop\n      pop\n      pop\n      swap1\n      pop\n        /* \"contracts/Agenda.sol\":664:788  function getContact(address contact) public view returns (string memory) {... */\n      swap2\n      swap1\n      pop\n      jump\t// out\n    tag_30:\n      pop\n      dup1\n      sload\n      tag_45\n      swap1\n      tag_27\n      jump\t// in\n    tag_45:\n      0x00\n      dup3\n      sstore\n      dup1\n      0x1f\n      lt\n      tag_47\n      jumpi\n      pop\n      jump(tag_46)\n    tag_47:\n      0x1f\n      add\n      0x20\n      swap1\n      div\n      swap1\n      0x00\n      mstore\n      keccak256(0x00, 0x20)\n      swap1\n      dup2\n      add\n      swap1\n      tag_48\n      swap2\n      swap1\n      tag_49\n      jump\t// in\n    tag_48:\n    tag_46:\n      pop\n      jump\t// out\n    tag_49:\n    tag_50:\n      dup1\n      dup3\n      gt\n      iszero\n      tag_51\n      jumpi\n      0x00\n      dup2\n      0x00\n      swap1\n      sstore\n      pop\n      0x01\n      add\n      jump(tag_50)\n    tag_51:\n      pop\n      swap1\n      jump\t// out\n        /* \"#utility.yul\":7:82   */\n    tag_52:\n        /* \"#utility.yul\":40:46   */\n      0x00\n        /* \"#utility.yul\":73:75   */\n      0x40\n        /* \"#utility.yul\":67:76   */\n      mload\n        /* \"#utility.yul\":57:76   */\n      swap1\n      pop\n        /* \"#utility.yul\":7:82   */\n      swap1\n      jump\t// out\n        /* \"#utility.yul\":88:205   */\n    tag_53:\n        /* \"#utility.yul\":197:198   */\n      0x00\n        /* \"#utility.yul\":194:195   */\n      0x00\n        /* \"#utility.yul\":187:199   */\n      revert\n        /* \"#utility.yul\":211:328   */\n    tag_54:\n        /* \"#utility.yul\":320:321   */\n      0x00\n        /* \"#utility.yul\":317:318   */\n      0x00\n        /* \"#utility.yul\":310:322   */\n      revert\n        /* \"#utility.yul\":334:460   */\n    tag_55:\n        /* \"#utility.yul\":371:378   */\n      0x00\n        /* \"#utility.yul\":411:453   */\n      0xffffffffffffffffffffffffffffffffffffffff\n        /* \"#utility.yul\":404:409   */\n      dup3\n        /* \"#utility.yul\":400:454   */\n      and\n        /* \"#utility.yul\":389:454   */\n      swap1\n      pop\n        /* \"#utility.yul\":334:460   */\n      swap2\n      swap1\n      pop\n      jump\t// out\n        /* \"#utility.yul\":466:562   */\n    tag_56:\n        /* \"#utility.yul\":503:510   */\n      0x00\n        /* \"#utility.yul\":532:556   */\n      tag_96\n        /* \"#utility.yul\":550:555   */\n      dup3\n        /* \"#utility.yul\":532:556   */\n      tag_55\n      jump\t// in\n    tag_96:\n        /* \"#utility.yul\":521:556   */\n      swap1\n      pop\n        /* \"#utility.yul\":466:562   */\n      swap2\n      swap1\n      pop\n      jump\t// out\n        /* \"#utility.yul\":568:690   */\n    tag_57:\n        /* \"#utility.yul\":641:665   */\n      tag_98\n        /* \"#utility.yul\":659:664   */\n      dup2\n        /* \"#utility.yul\":641:665   */\n      tag_56\n      jump\t// in\n    tag_98:\n        /* \"#utility.yul\":634:639   */\n      dup2\n        /* \"#utility.yul\":631:666   */\n      eq\n        /* \"#utility.yul\":621:684   */\n      tag_99\n      jumpi\n        /* \"#utility.yul\":680:681   */\n      0x00\n        /* \"#utility.yul\":677:678   */\n      0x00\n        /* \"#utility.yul\":670:682   */\n      revert\n        /* \"#utility.yul\":621:684   */\n    tag_99:\n        /* \"#utility.yul\":568:690   */\n      pop\n      jump\t// out\n        /* \"#utility.yul\":696:835   */\n    tag_58:\n        /* \"#utility.yul\":742:747   */\n      0x00\n        /* \"#utility.yul\":780:786   */\n      dup2\n        /* \"#utility.yul\":767:787   */\n      calldataload\n        /* \"#utility.yul\":758:787   */\n      swap1\n      pop\n        /* \"#utility.yul\":796:829   */\n      tag_101\n        /* \"#utility.yul\":823:828   */\n      dup2\n        /* \"#utility.yul\":796:829   */\n      tag_57\n      jump\t// in\n    tag_101:\n        /* \"#utility.yul\":696:835   */\n      swap3\n      swap2\n      pop\n      pop\n      jump\t// out\n        /* \"#utility.yul\":841:1170   */\n    tag_9:\n        /* \"#utility.yul\":900:906   */\n      0x00\n        /* \"#utility.yul\":949:951   */\n      0x20\n        /* \"#utility.yul\":937:946   */\n      dup3\n        /* \"#utility.yul\":928:935   */\n      dup5\n        /* \"#utility.yul\":924:947   */\n      sub\n        /* \"#utility.yul\":920:952   */\n      slt\n        /* \"#utility.yul\":917:1036   */\n      iszero\n      tag_103\n      jumpi\n        /* \"#utility.yul\":955:1034   */\n      tag_104\n      tag_53\n      jump\t// in\n    tag_104:\n        /* \"#utility.yul\":917:1036   */\n    tag_103:\n        /* \"#utility.yul\":1075:1076   */\n      0x00\n        /* \"#utility.yul\":1100:1153   */\n      tag_105\n        /* \"#utility.yul\":1145:1152   */\n      dup5\n        /* \"#utility.yul\":1136:1142   */\n      dup3\n        /* \"#utility.yul\":1125:1134   */\n      dup6\n        /* \"#utility.yul\":1121:1143   */\n      add\n        /* \"#utility.yul\":1100:1153   */\n      tag_58\n      jump\t// in\n    tag_105:\n        /* \"#utility.yul\":1090:1153   */\n      swap2\n      pop\n        /* \"#utility.yul\":1046:1163   */\n      pop\n        /* \"#utility.yul\":841:1170   */\n      swap3\n      swap2\n      pop\n      pop\n      jump\t// out\n        /* \"#utility.yul\":1176:1293   */\n    tag_59:\n        /* \"#utility.yul\":1285:1286   */\n      0x00\n        /* \"#utility.yul\":1282:1283   */\n      0x00\n        /* \"#utility.yul\":1275:1287   */\n      revert\n        /* \"#utility.yul\":1299:1416   */\n    tag_60:\n        /* \"#utility.yul\":1408:1409   */\n      0x00\n        /* \"#utility.yul\":1405:1406   */\n      0x00\n        /* \"#utility.yul\":1398:1410   */\n      revert\n        /* \"#utility.yul\":1422:1524   */\n    tag_61:\n        /* \"#utility.yul\":1463:1469   */\n      0x00\n        /* \"#utility.yul\":1514:1516   */\n      0x1f\n        /* \"#utility.yul\":1510:1517   */\n      not\n        /* \"#utility.yul\":1505:1507   */\n      0x1f\n        /* \"#utility.yul\":1498:1503   */\n      dup4\n        /* \"#utility.yul\":1494:1508   */\n      add\n        /* \"#utility.yul\":1490:1518   */\n      and\n        /* \"#utility.yul\":1480:1518   */\n      swap1\n      pop\n        /* \"#utility.yul\":1422:1524   */\n      swap2\n      swap1\n      pop\n      jump\t// out\n        /* \"#utility.yul\":1530:1710   */\n    tag_62:\n        /* \"#utility.yul\":1578:1655   */\n      0x4e487b7100000000000000000000000000000000000000000000000000000000\n        /* \"#utility.yul\":1575:1576   */\n      0x00\n        /* \"#utility.yul\":1568:1656   */\n      mstore\n        /* \"#utility.yul\":1675:1679   */\n      0x41\n        /* \"#utility.yul\":1672:1673   */\n      0x04\n        /* \"#utility.yul\":1665:1680   */\n      mstore\n        /* \"#utility.yul\":1699:1703   */\n      0x24\n        /* \"#utility.yul\":1696:1697   */\n      0x00\n        /* \"#utility.yul\":1689:1704   */\n      revert\n        /* \"#utility.yul\":1716:1997   */\n    tag_63:\n        /* \"#utility.yul\":1799:1826   */\n      tag_111\n        /* \"#utility.yul\":1821:1825   */\n      dup3\n        /* \"#utility.yul\":1799:1826   */\n      tag_61\n      jump\t// in\n    tag_111:\n        /* \"#utility.yul\":1791:1797   */\n      dup2\n        /* \"#utility.yul\":1787:1827   */\n      add\n        /* \"#utility.yul\":1929:1935   */\n      dup2\n        /* \"#utility.yul\":1917:1927   */\n      dup2\n        /* \"#utility.yul\":1914:1936   */\n      lt\n        /* \"#utility.yul\":1893:1911   */\n      0xffffffffffffffff\n        /* \"#utility.yul\":1881:1891   */\n      dup3\n        /* \"#utility.yul\":1878:1912   */\n      gt\n        /* \"#utility.yul\":1875:1937   */\n      or\n        /* \"#utility.yul\":1872:1960   */\n      iszero\n      tag_112\n      jumpi\n        /* \"#utility.yul\":1940:1958   */\n      tag_113\n      tag_62\n      jump\t// in\n    tag_113:\n        /* \"#utility.yul\":1872:1960   */\n    tag_112:\n        /* \"#utility.yul\":1980:1990   */\n      dup1\n        /* \"#utility.yul\":1976:1978   */\n      0x40\n        /* \"#utility.yul\":1969:1991   */\n      mstore\n        /* \"#utility.yul\":1759:1997   */\n      pop\n        /* \"#utility.yul\":1716:1997   */\n      pop\n      pop\n      jump\t// out\n        /* \"#utility.yul\":2003:2132   */\n    tag_64:\n        /* \"#utility.yul\":2037:2043   */\n      0x00\n        /* \"#utility.yul\":2064:2084   */\n      tag_115\n      tag_52\n      jump\t// in\n    tag_115:\n        /* \"#utility.yul\":2054:2084   */\n      swap1\n      pop\n        /* \"#utility.yul\":2093:2126   */\n      tag_116\n        /* \"#utility.yul\":2121:2125   */\n      dup3\n        /* \"#utility.yul\":2113:2119   */\n      dup3\n        /* \"#utility.yul\":2093:2126   */\n      tag_63\n      jump\t// in\n    tag_116:\n        /* \"#utility.yul\":2003:2132   */\n      swap2\n      swap1\n      pop\n      jump\t// out\n        /* \"#utility.yul\":2138:2446   */\n    tag_65:\n        /* \"#utility.yul\":2200:2204   */\n      0x00\n        /* \"#utility.yul\":2290:2308   */\n      0xffffffffffffffff\n        /* \"#utility.yul\":2282:2288   */\n      dup3\n        /* \"#utility.yul\":2279:2309   */\n      gt\n        /* \"#utility.yul\":2276:2332   */\n      iszero\n      tag_118\n      jumpi\n        /* \"#utility.yul\":2312:2330   */\n      tag_119\n      tag_62\n      jump\t// in\n    tag_119:\n        /* \"#utility.yul\":2276:2332   */\n    tag_118:\n        /* \"#utility.yul\":2350:2379   */\n      tag_120\n        /* \"#utility.yul\":2372:2378   */\n      dup3\n        /* \"#utility.yul\":2350:2379   */\n      tag_61\n      jump\t// in\n    tag_120:\n        /* \"#utility.yul\":2342:2379   */\n      swap1\n      pop\n        /* \"#utility.yul\":2434:2438   */\n      0x20\n        /* \"#utility.yul\":2428:2432   */\n      dup2\n        /* \"#utility.yul\":2424:2439   */\n      add\n        /* \"#utility.yul\":2416:2439   */\n      swap1\n      pop\n        /* \"#utility.yul\":2138:2446   */\n      swap2\n      swap1\n      pop\n      jump\t// out\n        /* \"#utility.yul\":2452:2600   */\n    tag_66:\n        /* \"#utility.yul\":2550:2556   */\n      dup3\n        /* \"#utility.yul\":2545:2548   */\n      dup2\n        /* \"#utility.yul\":2540:2543   */\n      dup4\n        /* \"#utility.yul\":2527:2557   */\n      calldatacopy\n        /* \"#utility.yul\":2591:2592   */\n      0x00\n        /* \"#utility.yul\":2582:2588   */\n      dup4\n        /* \"#utility.yul\":2577:2580   */\n      dup4\n        /* \"#utility.yul\":2573:2589   */\n      add\n        /* \"#utility.yul\":2566:2593   */\n      mstore\n        /* \"#utility.yul\":2452:2600   */\n      pop\n      pop\n      pop\n      jump\t// out\n        /* \"#utility.yul\":2606:3031   */\n    tag_67:\n        /* \"#utility.yul\":2684:2689   */\n      0x00\n        /* \"#utility.yul\":2709:2775   */\n      tag_123\n        /* \"#utility.yul\":2725:2774   */\n      tag_124\n        /* \"#utility.yul\":2767:2773   */\n      dup5\n        /* \"#utility.yul\":2725:2774   */\n      tag_65\n      jump\t// in\n    tag_124:\n        /* \"#utility.yul\":2709:2775   */\n      tag_64\n      jump\t// in\n    tag_123:\n        /* \"#utility.yul\":2700:2775   */\n      swap1\n      pop\n        /* \"#utility.yul\":2798:2804   */\n      dup3\n        /* \"#utility.yul\":2791:2796   */\n      dup2\n        /* \"#utility.yul\":2784:2805   */\n      mstore\n        /* \"#utility.yul\":2836:2840   */\n      0x20\n        /* \"#utility.yul\":2829:2834   */\n      dup2\n        /* \"#utility.yul\":2825:2841   */\n      add\n        /* \"#utility.yul\":2874:2877   */\n      dup5\n        /* \"#utility.yul\":2865:2871   */\n      dup5\n        /* \"#utility.yul\":2860:2863   */\n      dup5\n        /* \"#utility.yul\":2856:2872   */\n      add\n        /* \"#utility.yul\":2853:2878   */\n      gt\n        /* \"#utility.yul\":2850:2962   */\n      iszero\n      tag_125\n      jumpi\n        /* \"#utility.yul\":2881:2960   */\n      tag_126\n      tag_60\n      jump\t// in\n    tag_126:\n        /* \"#utility.yul\":2850:2962   */\n    tag_125:\n        /* \"#utility.yul\":2971:3025   */\n      tag_127\n        /* \"#utility.yul\":3018:3024   */\n      dup5\n        /* \"#utility.yul\":3013:3016   */\n      dup3\n        /* \"#utility.yul\":3008:3011   */\n      dup6\n        /* \"#utility.yul\":2971:3025   */\n      tag_66\n      jump\t// in\n    tag_127:\n        /* \"#utility.yul\":2690:3031   */\n      pop\n        /* \"#utility.yul\":2606:3031   */\n      swap4\n      swap3\n      pop\n      pop\n      pop\n      jump\t// out\n        /* \"#utility.yul\":3051:3391   */\n    tag_68:\n        /* \"#utility.yul\":3107:3112   */\n      0x00\n        /* \"#utility.yul\":3156:3159   */\n      dup3\n        /* \"#utility.yul\":3149:3153   */\n      0x1f\n        /* \"#utility.yul\":3141:3147   */\n      dup4\n        /* \"#utility.yul\":3137:3154   */\n      add\n        /* \"#utility.yul\":3133:3160   */\n      slt\n        /* \"#utility.yul\":3123:3245   */\n      tag_129\n      jumpi\n        /* \"#utility.yul\":3164:3243   */\n      tag_130\n      tag_59\n      jump\t// in\n    tag_130:\n        /* \"#utility.yul\":3123:3245   */\n    tag_129:\n        /* \"#utility.yul\":3281:3287   */\n      dup2\n        /* \"#utility.yul\":3268:3288   */\n      calldataload\n        /* \"#utility.yul\":3306:3385   */\n      tag_131\n        /* \"#utility.yul\":3381:3384   */\n      dup5\n        /* \"#utility.yul\":3373:3379   */\n      dup3\n        /* \"#utility.yul\":3366:3370   */\n      0x20\n        /* \"#utility.yul\":3358:3364   */\n      dup7\n        /* \"#utility.yul\":3354:3371   */\n      add\n        /* \"#utility.yul\":3306:3385   */\n      tag_67\n      jump\t// in\n    tag_131:\n        /* \"#utility.yul\":3297:3385   */\n      swap2\n      pop\n        /* \"#utility.yul\":3113:3391   */\n      pop\n        /* \"#utility.yul\":3051:3391   */\n      swap3\n      swap2\n      pop\n      pop\n      jump\t// out\n        /* \"#utility.yul\":3397:4051   */\n    tag_13:\n        /* \"#utility.yul\":3475:3481   */\n      0x00\n        /* \"#utility.yul\":3483:3489   */\n      0x00\n        /* \"#utility.yul\":3532:3534   */\n      0x40\n        /* \"#utility.yul\":3520:3529   */\n      dup4\n        /* \"#utility.yul\":3511:3518   */\n      dup6\n        /* \"#utility.yul\":3507:3530   */\n      sub\n        /* \"#utility.yul\":3503:3535   */\n      slt\n        /* \"#utility.yul\":3500:3619   */\n      iszero\n      tag_133\n      jumpi\n        /* \"#utility.yul\":3538:3617   */\n      tag_134\n      tag_53\n      jump\t// in\n    tag_134:\n        /* \"#utility.yul\":3500:3619   */\n    tag_133:\n        /* \"#utility.yul\":3658:3659   */\n      0x00\n        /* \"#utility.yul\":3683:3736   */\n      tag_135\n        /* \"#utility.yul\":3728:3735   */\n      dup6\n        /* \"#utility.yul\":3719:3725   */\n      dup3\n        /* \"#utility.yul\":3708:3717   */\n      dup7\n        /* \"#utility.yul\":3704:3726   */\n      add\n        /* \"#utility.yul\":3683:3736   */\n      tag_58\n      jump\t// in\n    tag_135:\n        /* \"#utility.yul\":3673:3736   */\n      swap3\n      pop\n        /* \"#utility.yul\":3629:3746   */\n      pop\n        /* \"#utility.yul\":3813:3815   */\n      0x20\n        /* \"#utility.yul\":3802:3811   */\n      dup4\n        /* \"#utility.yul\":3798:3816   */\n      add\n        /* \"#utility.yul\":3785:3817   */\n      calldataload\n        /* \"#utility.yul\":3844:3862   */\n      0xffffffffffffffff\n        /* \"#utility.yul\":3836:3842   */\n      dup2\n        /* \"#utility.yul\":3833:3863   */\n      gt\n        /* \"#utility.yul\":3830:3947   */\n      iszero\n      tag_136\n      jumpi\n        /* \"#utility.yul\":3866:3945   */\n      tag_137\n      tag_54\n      jump\t// in\n    tag_137:\n        /* \"#utility.yul\":3830:3947   */\n    tag_136:\n        /* \"#utility.yul\":3971:4034   */\n      tag_138\n        /* \"#utility.yul\":4026:4033   */\n      dup6\n        /* \"#utility.yul\":4017:4023   */\n      dup3\n        /* \"#utility.yul\":4006:4015   */\n      dup7\n        /* \"#utility.yul\":4002:4024   */\n      add\n        /* \"#utility.yul\":3971:4034   */\n      tag_68\n      jump\t// in\n    tag_138:\n        /* \"#utility.yul\":3961:4034   */\n      swap2\n      pop\n        /* \"#utility.yul\":3756:4044   */\n      pop\n        /* \"#utility.yul\":3397:4051   */\n      swap3\n      pop\n      swap3\n      swap1\n      pop\n      jump\t// out\n        /* \"#utility.yul\":4057:4531   */\n    tag_17:\n        /* \"#utility.yul\":4125:4131   */\n      0x00\n        /* \"#utility.yul\":4133:4139   */\n      0x00\n        /* \"#utility.yul\":4182:4184   */\n      0x40\n        /* \"#utility.yul\":4170:4179   */\n      dup4\n        /* \"#utility.yul\":4161:4168   */\n      dup6\n        /* \"#utility.yul\":4157:4180   */\n      sub\n        /* \"#utility.yul\":4153:4185   */\n      slt\n        /* \"#utility.yul\":4150:4269   */\n      iszero\n      tag_140\n      jumpi\n        /* \"#utility.yul\":4188:4267   */\n      tag_141\n      tag_53\n      jump\t// in\n    tag_141:\n        /* \"#utility.yul\":4150:4269   */\n    tag_140:\n        /* \"#utility.yul\":4308:4309   */\n      0x00\n        /* \"#utility.yul\":4333:4386   */\n      tag_142\n        /* \"#utility.yul\":4378:4385   */\n      dup6\n        /* \"#utility.yul\":4369:4375   */\n      dup3\n        /* \"#utility.yul\":4358:4367   */\n      dup7\n        /* \"#utility.yul\":4354:4376   */\n      add\n        /* \"#utility.yul\":4333:4386   */\n      tag_58\n      jump\t// in\n    tag_142:\n        /* \"#utility.yul\":4323:4386   */\n      swap3\n      pop\n        /* \"#utility.yul\":4279:4396   */\n      pop\n        /* \"#utility.yul\":4435:4437   */\n      0x20\n        /* \"#utility.yul\":4461:4514   */\n      tag_143\n        /* \"#utility.yul\":4506:4513   */\n      dup6\n        /* \"#utility.yul\":4497:4503   */\n      dup3\n        /* \"#utility.yul\":4486:4495   */\n      dup7\n        /* \"#utility.yul\":4482:4504   */\n      add\n        /* \"#utility.yul\":4461:4514   */\n      tag_58\n      jump\t// in\n    tag_143:\n        /* \"#utility.yul\":4451:4514   */\n      swap2\n      pop\n        /* \"#utility.yul\":4406:4524   */\n      pop\n        /* \"#utility.yul\":4057:4531   */\n      swap3\n      pop\n      swap3\n      swap1\n      pop\n      jump\t// out\n        /* \"#utility.yul\":4537:4636   */\n    tag_69:\n        /* \"#utility.yul\":4589:4595   */\n      0x00\n        /* \"#utility.yul\":4623:4628   */\n      dup2\n        /* \"#utility.yul\":4617:4629   */\n      mload\n        /* \"#utility.yul\":4607:4629   */\n      swap1\n      pop\n        /* \"#utility.yul\":4537:4636   */\n      swap2\n      swap1\n      pop\n      jump\t// out\n        /* \"#utility.yul\":4642:4811   */\n    tag_70:\n        /* \"#utility.yul\":4726:4737   */\n      0x00\n        /* \"#utility.yul\":4760:4766   */\n      dup3\n        /* \"#utility.yul\":4755:4758   */\n      dup3\n        /* \"#utility.yul\":4748:4767   */\n      mstore\n        /* \"#utility.yul\":4800:4804   */\n      0x20\n        /* \"#utility.yul\":4795:4798   */\n      dup3\n        /* \"#utility.yul\":4791:4805   */\n      add\n        /* \"#utility.yul\":4776:4805   */\n      swap1\n      pop\n        /* \"#utility.yul\":4642:4811   */\n      swap3\n      swap2\n      pop\n      pop\n      jump\t// out\n        /* \"#utility.yul\":4817:4956   */\n    tag_71:\n        /* \"#utility.yul\":4906:4912   */\n      dup3\n        /* \"#utility.yul\":4901:4904   */\n      dup2\n        /* \"#utility.yul\":4896:4899   */\n      dup4\n        /* \"#utility.yul\":4890:4913   */\n      mcopy\n        /* \"#utility.yul\":4947:4948   */\n      0x00\n        /* \"#utility.yul\":4938:4944   */\n      dup4\n        /* \"#utility.yul\":4933:4936   */\n      dup4\n        /* \"#utility.yul\":4929:4945   */\n      add\n        /* \"#utility.yul\":4922:4949   */\n      mstore\n        /* \"#utility.yul\":4817:4956   */\n      pop\n      pop\n      pop\n      jump\t// out\n        /* \"#utility.yul\":4962:5339   */\n    tag_72:\n        /* \"#utility.yul\":5050:5053   */\n      0x00\n        /* \"#utility.yul\":5078:5117   */\n      tag_148\n        /* \"#utility.yul\":5111:5116   */\n      dup3\n        /* \"#utility.yul\":5078:5117   */\n      tag_69\n      jump\t// in\n    tag_148:\n        /* \"#utility.yul\":5133:5204   */\n      tag_149\n        /* \"#utility.yul\":5197:5203   */\n      dup2\n        /* \"#utility.yul\":5192:5195   */\n      dup6\n        /* \"#utility.yul\":5133:5204   */\n      tag_70\n      jump\t// in\n    tag_149:\n        /* \"#utility.yul\":5126:5204   */\n      swap4\n      pop\n        /* \"#utility.yul\":5213:5278   */\n      tag_150\n        /* \"#utility.yul\":5271:5277   */\n      dup2\n        /* \"#utility.yul\":5266:5269   */\n      dup6\n        /* \"#utility.yul\":5259:5263   */\n      0x20\n        /* \"#utility.yul\":5252:5257   */\n      dup7\n        /* \"#utility.yul\":5248:5264   */\n      add\n        /* \"#utility.yul\":5213:5278   */\n      tag_71\n      jump\t// in\n    tag_150:\n        /* \"#utility.yul\":5303:5332   */\n      tag_151\n        /* \"#utility.yul\":5325:5331   */\n      dup2\n        /* \"#utility.yul\":5303:5332   */\n      tag_61\n      jump\t// in\n    tag_151:\n        /* \"#utility.yul\":5298:5301   */\n      dup5\n        /* \"#utility.yul\":5294:5333   */\n      add\n        /* \"#utility.yul\":5287:5333   */\n      swap2\n      pop\n        /* \"#utility.yul\":5054:5339   */\n      pop\n        /* \"#utility.yul\":4962:5339   */\n      swap3\n      swap2\n      pop\n      pop\n      jump\t// out\n        /* \"#utility.yul\":5345:5658   */\n    tag_20:\n        /* \"#utility.yul\":5458:5462   */\n      0x00\n        /* \"#utility.yul\":5496:5498   */\n      0x20\n        /* \"#utility.yul\":5485:5494   */\n      dup3\n        /* \"#utility.yul\":5481:5499   */\n      add\n        /* \"#utility.yul\":5473:5499   */\n      swap1\n      pop\n        /* \"#utility.yul\":5545:5554   */\n      dup2\n        /* \"#utility.yul\":5539:5543   */\n      dup2\n        /* \"#utility.yul\":5535:5555   */\n      sub\n        /* \"#utility.yul\":5531:5532   */\n      0x00\n        /* \"#utility.yul\":5520:5529   */\n      dup4\n        /* \"#utility.yul\":5516:5533   */\n      add\n        /* \"#utility.yul\":5509:5556   */\n      mstore\n        /* \"#utility.yul\":5573:5651   */\n      tag_153\n        /* \"#utility.yul\":5646:5650   */\n      dup2\n        /* \"#utility.yul\":5637:5643   */\n      dup5\n        /* \"#utility.yul\":5573:5651   */\n      tag_72\n      jump\t// in\n    tag_153:\n        /* \"#utility.yul\":5565:5651   */\n      swap1\n      pop\n        /* \"#utility.yul\":5345:5658   */\n      swap3\n      swap2\n      pop\n      pop\n      jump\t// out\n        /* \"#utility.yul\":5664:5844   */\n    tag_73:\n        /* \"#utility.yul\":5712:5789   */\n      0x4e487b7100000000000000000000000000000000000000000000000000000000\n        /* \"#utility.yul\":5709:5710   */\n      0x00\n        /* \"#utility.yul\":5702:5790   */\n      mstore\n        /* \"#utility.yul\":5809:5813   */\n      0x22\n        /* \"#utility.yul\":5806:5807   */\n      0x04\n        /* \"#utility.yul\":5799:5814   */\n      mstore\n        /* \"#utility.yul\":5833:5837   */\n      0x24\n        /* \"#utility.yul\":5830:5831   */\n      0x00\n        /* \"#utility.yul\":5823:5838   */\n      revert\n        /* \"#utility.yul\":5850:6170   */\n    tag_27:\n        /* \"#utility.yul\":5894:5900   */\n      0x00\n        /* \"#utility.yul\":5931:5932   */\n      0x02\n        /* \"#utility.yul\":5925:5929   */\n      dup3\n        /* \"#utility.yul\":5921:5933   */\n      div\n        /* \"#utility.yul\":5911:5933   */\n      swap1\n      pop\n        /* \"#utility.yul\":5978:5979   */\n      0x01\n        /* \"#utility.yul\":5972:5976   */\n      dup3\n        /* \"#utility.yul\":5968:5980   */\n      and\n        /* \"#utility.yul\":5999:6017   */\n      dup1\n        /* \"#utility.yul\":5989:6070   */\n      tag_156\n      jumpi\n        /* \"#utility.yul\":6055:6059   */\n      0x7f\n        /* \"#utility.yul\":6047:6053   */\n      dup3\n        /* \"#utility.yul\":6043:6060   */\n      and\n        /* \"#utility.yul\":6033:6060   */\n      swap2\n      pop\n        /* \"#utility.yul\":5989:6070   */\n    tag_156:\n        /* \"#utility.yul\":6117:6119   */\n      0x20\n        /* \"#utility.yul\":6109:6115   */\n      dup3\n        /* \"#utility.yul\":6106:6120   */\n      lt\n        /* \"#utility.yul\":6086:6104   */\n      dup2\n        /* \"#utility.yul\":6083:6121   */\n      sub\n        /* \"#utility.yul\":6080:6164   */\n      tag_157\n      jumpi\n        /* \"#utility.yul\":6136:6154   */\n      tag_158\n      tag_73\n      jump\t// in\n    tag_158:\n        /* \"#utility.yul\":6080:6164   */\n    tag_157:\n        /* \"#utility.yul\":5901:6170   */\n      pop\n        /* \"#utility.yul\":5850:6170   */\n      swap2\n      swap1\n      pop\n      jump\t// out\n        /* \"#utility.yul\":6176:6317   */\n    tag_74:\n        /* \"#utility.yul\":6225:6229   */\n      0x00\n        /* \"#utility.yul\":6248:6251   */\n      dup2\n        /* \"#utility.yul\":6240:6251   */\n      swap1\n      pop\n        /* \"#utility.yul\":6271:6274   */\n      dup2\n        /* \"#utility.yul\":6268:6269   */\n      0x00\n        /* \"#utility.yul\":6261:6275   */\n      mstore\n        /* \"#utility.yul\":6305:6309   */\n      0x20\n        /* \"#utility.yul\":6302:6303   */\n      0x00\n        /* \"#utility.yul\":6292:6310   */\n      keccak256\n        /* \"#utility.yul\":6284:6310   */\n      swap1\n      pop\n        /* \"#utility.yul\":6176:6317   */\n      swap2\n      swap1\n      pop\n      jump\t// out\n        /* \"#utility.yul\":6323:6416   */\n    tag_75:\n        /* \"#utility.yul\":6360:6366   */\n      0x00\n        /* \"#utility.yul\":6407:6409   */\n      0x20\n        /* \"#utility.yul\":6402:6404   */\n      0x1f\n        /* \"#utility.yul\":6395:6400   */\n      dup4\n        /* \"#utility.yul\":6391:6405   */\n      add\n        /* \"#utility.yul\":6387:6410   */\n      div\n        /* \"#utility.yul\":6377:6410   */\n      swap1\n      pop\n        /* \"#utility.yul\":6323:6416   */\n      swap2\n      swap1\n      pop\n      jump\t// out\n        /* \"#utility.yul\":6422:6529   */\n    tag_76:\n        /* \"#utility.yul\":6466:6474   */\n      0x00\n        /* \"#utility.yul\":6516:6521   */\n      dup3\n        /* \"#utility.yul\":6510:6514   */\n      dup3\n        /* \"#utility.yul\":6506:6522   */\n      shl\n        /* \"#utility.yul\":6485:6522   */\n      swap1\n      pop\n        /* \"#utility.yul\":6422:6529   */\n      swap3\n      swap2\n      pop\n      pop\n      jump\t// out\n        /* \"#utility.yul\":6535:6928   */\n    tag_77:\n        /* \"#utility.yul\":6604:6610   */\n      0x00\n        /* \"#utility.yul\":6654:6655   */\n      0x08\n        /* \"#utility.yul\":6642:6652   */\n      dup4\n        /* \"#utility.yul\":6638:6656   */\n      mul\n        /* \"#utility.yul\":6677:6774   */\n      tag_163\n        /* \"#utility.yul\":6707:6773   */\n      0xffffffffffffffffffffffffffffffffffffffffffffffffffffffffffffffff\n        /* \"#utility.yul\":6696:6705   */\n      dup3\n        /* \"#utility.yul\":6677:6774   */\n      tag_76\n      jump\t// in\n    tag_163:\n        /* \"#utility.yul\":6795:6834   */\n      tag_164\n        /* \"#utility.yul\":6825:6833   */\n      dup7\n        /* \"#utility.yul\":6814:6823   */\n      dup4\n        /* \"#utility.yul\":6795:6834   */\n      tag_76\n      jump\t// in\n    tag_164:\n        /* \"#utility.yul\":6783:6834   */\n      swap6\n      pop\n        /* \"#utility.yul\":6867:6871   */\n      dup1\n        /* \"#utility.yul\":6863:6872   */\n      not\n        /* \"#utility.yul\":6856:6861   */\n      dup5\n        /* \"#utility.yul\":6852:6873   */\n      and\n        /* \"#utility.yul\":6843:6873   */\n      swap4\n      pop\n        /* \"#utility.yul\":6916:6920   */\n      dup1\n        /* \"#utility.yul\":6906:6914   */\n      dup7\n        /* \"#utility.yul\":6902:6921   */\n      and\n        /* \"#utility.yul\":6895:6900   */\n      dup5\n        /* \"#utility.yul\":6892:6922   */\n      or\n        /* \"#utility.yul\":6882:6922   */\n      swap3\n      pop\n        /* \"#utility.yul\":6611:6928   */\n      pop\n      pop\n        /* \"#utility.yul\":6535:6928   */\n      swap4\n      swap3\n      pop\n      pop\n      pop\n      jump\t// out\n        /* \"#utility.yul\":6934:7011   */\n    tag_78:\n        /* \"#utility.yul\":6971:6978   */\n      0x00\n        /* \"#utility.yul\":7000:7005   */\n      dup2\n        /* \"#utility.yul\":6989:7005   */\n      swap1\n      pop\n        /* \"#utility.yul\":6934:7011   */\n      swap2\n      swap1\n      pop\n      jump\t// out\n        /* \"#utility.yul\":7017:7077   */\n    tag_79:\n        /* \"#utility.yul\":7045:7048   */\n      0x00\n        /* \"#utility.yul\":7066:7071   */\n      dup2\n        /* \"#utility.yul\":7059:7071   */\n      swap1\n      pop\n        /* \"#utility.yul\":7017:7077   */\n      swap2\n      swap1\n      pop\n      jump\t// out\n        /* \"#utility.yul\":7083:7225   */\n    tag_80:\n        /* \"#utility.yul\":7133:7142   */\n      0x00\n        /* \"#utility.yul\":7166:7219   */\n      tag_168\n        /* \"#utility.yul\":7184:7218   */\n      tag_169\n        /* \"#utility.yul\":7193:7217   */\n      tag_170\n        /* \"#utility.yul\":7211:7216   */\n      dup5\n        /* \"#utility.yul\":7193:7217   */\n      tag_78\n      jump\t// in\n    tag_170:\n        /* \"#utility.yul\":7184:7218   */\n      tag_79\n      jump\t// in\n    tag_169:\n        /* \"#utility.yul\":7166:7219   */\n      tag_78\n      jump\t// in\n    tag_168:\n        /* \"#utility.yul\":7153:7219   */\n      swap1\n      pop\n        /* \"#utility.yul\":7083:7225   */\n      swap2\n      swap1\n      pop\n      jump\t// out\n        /* \"#utility.yul\":7231:7306   */\n    tag_81:\n        /* \"#utility.yul\":7274:7277   */\n      0x00\n        /* \"#utility.yul\":7295:7300   */\n      dup2\n        /* \"#utility.yul\":7288:7300   */\n      swap1\n      pop\n        /* \"#utility.yul\":7231:7306   */\n      swap2\n      swap1\n      pop\n      jump\t// out\n        /* \"#utility.yul\":7312:7581   */\n    tag_82:\n        /* \"#utility.yul\":7422:7461   */\n      tag_173\n        /* \"#utility.yul\":7453:7460   */\n      dup4\n        /* \"#utility.yul\":7422:7461   */\n      tag_80\n      jump\t// in\n    tag_173:\n        /* \"#utility.yul\":7483:7574   */\n      tag_174\n        /* \"#utility.yul\":7532:7573   */\n      tag_175\n        /* \"#utility.yul\":7556:7572   */\n      dup3\n        /* \"#utility.yul\":7532:7573   */\n      tag_81\n      jump\t// in\n    tag_175:\n        /* \"#utility.yul\":7524:7530   */\n      dup5\n        /* \"#utility.yul\":7517:7521   */\n      dup5\n        /* \"#utility.yul\":7511:7522   */\n      sload\n        /* \"#utility.yul\":7483:7574   */\n      tag_77\n      jump\t// in\n    tag_174:\n        /* \"#utility.yul\":7477:7481   */\n      dup3\n        /* \"#utility.yul\":7470:7575   */\n      sstore\n        /* \"#utility.yul\":7388:7581   */\n      pop\n        /* \"#utility.yul\":7312:7581   */\n      pop\n      pop\n      pop\n      jump\t// out\n        /* \"#utility.yul\":7587:7660   */\n    tag_83:\n        /* \"#utility.yul\":7632:7635   */\n      0x00\n        /* \"#utility.yul\":7653:7654   */\n      0x00\n        /* \"#utility.yul\":7646:7654   */\n      swap1\n      pop\n        /* \"#utility.yul\":7587:7660   */\n      swap1\n      jump\t// out\n        /* \"#utility.yul\":7666:7855   */\n    tag_84:\n        /* \"#utility.yul\":7743:7775   */\n      tag_178\n      tag_83\n      jump\t// in\n    tag_178:\n        /* \"#utility.yul\":7784:7849   */\n      tag_179\n        /* \"#utility.yul\":7842:7848   */\n      dup2\n        /* \"#utility.yul\":7834:7840   */\n      dup5\n        /* \"#utility.yul\":7828:7832   */\n      dup5\n        /* \"#utility.yul\":7784:7849   */\n      tag_82\n      jump\t// in\n    tag_179:\n        /* \"#utility.yul\":7719:7855   */\n      pop\n        /* \"#utility.yul\":7666:7855   */\n      pop\n      pop\n      jump\t// out\n        /* \"#utility.yul\":7861:8047   */\n    tag_85:\n        /* \"#utility.yul\":7921:8041   */\n    tag_181:\n        /* \"#utility.yul\":7938:7941   */\n      dup2\n        /* \"#utility.yul\":7931:7936   */\n      dup2\n        /* \"#utility.yul\":7928:7942   */\n      lt\n        /* \"#utility.yul\":7921:8041   */\n      iszero\n      tag_183\n      jumpi\n        /* \"#utility.yul\":7992:8031   */\n      tag_184\n        /* \"#utility.yul\":8029:8030   */\n      0x00\n        /* \"#utility.yul\":8022:8027   */\n      dup3\n        /* \"#utility.yul\":7992:8031   */\n      tag_84\n      jump\t// in\n    tag_184:\n        /* \"#utility.yul\":7965:7966   */\n      0x01\n        /* \"#utility.yul\":7958:7963   */\n      dup2\n        /* \"#utility.yul\":7954:7967   */\n      add\n        /* \"#utility.yul\":7945:7967   */\n      swap1\n      pop\n        /* \"#utility.yul\":7921:8041   */\n      jump(tag_181)\n    tag_183:\n        /* \"#utility.yul\":7861:8047   */\n      pop\n      pop\n      jump\t// out\n        /* \"#utility.yul\":8053:8596   */\n    tag_86:\n        /* \"#utility.yul\":8154:8156   */\n      0x1f\n        /* \"#utility.yul\":8149:8152   */\n      dup3\n        /* \"#utility.yul\":8146:8157   */\n      gt\n        /* \"#utility.yul\":8143:8589   */\n      iszero\n      tag_186\n      jumpi\n        /* \"#utility.yul\":8188:8226   */\n      tag_187\n        /* \"#utility.yul\":8220:8225   */\n      dup2\n        /* \"#utility.yul\":8188:8226   */\n      tag_74\n      jump\t// in\n    tag_187:\n        /* \"#utility.yul\":8272:8301   */\n      tag_188\n        /* \"#utility.yul\":8290:8300   */\n      dup5\n        /* \"#utility.yul\":8272:8301   */\n      tag_75\n      jump\t// in\n    tag_188:\n        /* \"#utility.yul\":8262:8270   */\n      dup2\n        /* \"#utility.yul\":8258:8302   */\n      add\n        /* \"#utility.yul\":8455:8457   */\n      0x20\n        /* \"#utility.yul\":8443:8453   */\n      dup6\n        /* \"#utility.yul\":8440:8458   */\n      lt\n        /* \"#utility.yul\":8437:8486   */\n      iszero\n      tag_189\n      jumpi\n        /* \"#utility.yul\":8476:8484   */\n      dup2\n        /* \"#utility.yul\":8461:8484   */\n      swap1\n      pop\n        /* \"#utility.yul\":8437:8486   */\n    tag_189:\n        /* \"#utility.yul\":8499:8579   */\n      tag_190\n        /* \"#utility.yul\":8555:8577   */\n      tag_191\n        /* \"#utility.yul\":8573:8576   */\n      dup6\n        /* \"#utility.yul\":8555:8577   */\n      tag_75\n      jump\t// in\n    tag_191:\n        /* \"#utility.yul\":8545:8553   */\n      dup4\n        /* \"#utility.yul\":8541:8578   */\n      add\n        /* \"#utility.yul\":8528:8539   */\n      dup3\n        /* \"#utility.yul\":8499:8579   */\n      tag_85\n      jump\t// in\n    tag_190:\n        /* \"#utility.yul\":8158:8589   */\n      pop\n      pop\n        /* \"#utility.yul\":8143:8589   */\n    tag_186:\n        /* \"#utility.yul\":8053:8596   */\n      pop\n      pop\n      pop\n      jump\t// out\n        /* \"#utility.yul\":8602:8719   */\n    tag_87:\n        /* \"#utility.yul\":8656:8664   */\n      0x00\n        /* \"#utility.yul\":8706:8711   */\n      dup3\n        /* \"#utility.yul\":8700:8704   */\n      dup3\n        /* \"#utility.yul\":8696:8712   */\n      shr\n        /* \"#utility.yul\":8675:8712   */\n      swap1\n      pop\n        /* \"#utility.yul\":8602:8719   */\n      swap3\n      swap2\n      pop\n      pop\n      jump\t// out\n        /* \"#utility.yul\":8725:8894   */\n    tag_88:\n        /* \"#utility.yul\":8769:8775   */\n      0x00\n        /* \"#utility.yul\":8802:8853   */\n      tag_194\n        /* \"#utility.yul\":8850:8851   */\n      0x00\n        /* \"#utility.yul\":8846:8852   */\n      not\n        /* \"#utility.yul\":8838:8843   */\n      dup5\n        /* \"#utility.yul\":8835:8836   */\n      0x08\n        /* \"#utility.yul\":8831:8844   */\n      mul\n        /* \"#utility.yul\":8802:8853   */\n      tag_87\n      jump\t// in\n    tag_194:\n        /* \"#utility.yul\":8798:8854   */\n      not\n        /* \"#utility.yul\":8883:8887   */\n      dup1\n        /* \"#utility.yul\":8877:8881   */\n      dup4\n        /* \"#utility.yul\":8873:8888   */\n      and\n        /* \"#utility.yul\":8863:8888   */\n      swap2\n      pop\n        /* \"#utility.yul\":8776:8894   */\n      pop\n        /* \"#utility.yul\":8725:8894   */\n      swap3\n      swap2\n      pop\n      pop\n      jump\t// out\n        /* \"#utility.yul\":8899:9194   */\n    tag_89:\n        /* \"#utility.yul\":8975:8979   */\n      0x00\n        /* \"#utility.yul\":9121:9150   */\n      tag_196\n        /* \"#utility.yul\":9146:9149   */\n      dup4\n        /* \"#utility.yul\":9140:9144   */\n      dup4\n        /* \"#utility.yul\":9121:9150   */\n      tag_88\n      jump\t// in\n    tag_196:\n        /* \"#utility.yul\":9113:9150   */\n      swap2\n      pop\n        /* \"#utility.yul\":9183:9186   */\n      dup3\n        /* \"#utility.yul\":9180:9181   */\n      0x02\n        /* \"#utility.yul\":9176:9187   */\n      mul\n        /* \"#utility.yul\":9170:9174   */\n      dup3\n        /* \"#utility.yul\":9167:9188   */\n      or\n        /* \"#utility.yul\":9159:9188   */\n      swap1\n      pop\n        /* \"#utility.yul\":8899:9194   */\n      swap3\n      swap2\n      pop\n      pop\n      jump\t// out\n        /* \"#utility.yul\":9199:10594   */\n    tag_33:\n        /* \"#utility.yul\":9316:9353   */\n      tag_198\n        /* \"#utility.yul\":9349:9352   */\n      dup3\n        /* \"#utility.yul\":9316:9353   */\n      tag_69\n      jump\t// in\n    tag_198:\n        /* \"#utility.yul\":9418:9436   */\n      0xffffffffffffffff\n        /* \"#utility.yul\":9410:9416   */\n      dup2\n        /* \"#utility.yul\":9407:9437   */\n      gt\n        /* \"#utility.yul\":9404:9460   */\n      iszero\n      tag_199\n      jumpi\n        /* \"#utility.yul\":9440:9458   */\n      tag_200\n      tag_62\n      jump\t// in\n    tag_200:\n        /* \"#utility.yul\":9404:9460   */\n    tag_199:\n        /* \"#utility.yul\":9484:9522   */\n      tag_201\n        /* \"#utility.yul\":9516:9520   */\n      dup3\n        /* \"#utility.yul\":9510:9521   */\n      sload\n        /* \"#utility.yul\":9484:9522   */\n      tag_27\n      jump\t// in\n    tag_201:\n        /* \"#utility.yul\":9569:9636   */\n      tag_202\n        /* \"#utility.yul\":9629:9635   */\n      dup3\n        /* \"#utility.yul\":9621:9627   */\n      dup3\n        /* \"#utility.yul\":9615:9619   */\n      dup6\n        /* \"#utility.yul\":9569:9636   */\n      tag_86\n      jump\t// in\n    tag_202:\n        /* \"#utility.yul\":9663:9664   */\n      0x00\n        /* \"#utility.yul\":9687:9691   */\n      0x20\n        /* \"#utility.yul\":9674:9691   */\n      swap1\n      pop\n        /* \"#utility.yul\":9719:9721   */\n      0x1f\n        /* \"#utility.yul\":9711:9717   */\n      dup4\n        /* \"#utility.yul\":9708:9722   */\n      gt\n        /* \"#utility.yul\":9736:9737   */\n      0x01\n        /* \"#utility.yul\":9731:10349   */\n      dup2\n      eq\n      tag_204\n      jumpi\n        /* \"#utility.yul\":10393:10394   */\n      0x00\n        /* \"#utility.yul\":10410:10416   */\n      dup5\n        /* \"#utility.yul\":10407:10484   */\n      iszero\n      tag_205\n      jumpi\n        /* \"#utility.yul\":10459:10468   */\n      dup3\n        /* \"#utility.yul\":10454:10457   */\n      dup8\n        /* \"#utility.yul\":10450:10469   */\n      add\n        /* \"#utility.yul\":10444:10470   */\n      mload\n        /* \"#utility.yul\":10435:10470   */\n      swap1\n      pop\n        /* \"#utility.yul\":10407:10484   */\n    tag_205:\n        /* \"#utility.yul\":10510:10577   */\n      tag_206\n        /* \"#utility.yul\":10570:10576   */\n      dup6\n        /* \"#utility.yul\":10563:10568   */\n      dup3\n        /* \"#utility.yul\":10510:10577   */\n      tag_89\n      jump\t// in\n    tag_206:\n        /* \"#utility.yul\":10504:10508   */\n      dup7\n        /* \"#utility.yul\":10497:10578   */\n      sstore\n        /* \"#utility.yul\":10366:10588   */\n      pop\n        /* \"#utility.yul\":9701:10588   */\n      jump(tag_203)\n        /* \"#utility.yul\":9731:10349   */\n    tag_204:\n        /* \"#utility.yul\":9783:9787   */\n      0x1f\n        /* \"#utility.yul\":9779:9788   */\n      not\n        /* \"#utility.yul\":9771:9777   */\n      dup5\n        /* \"#utility.yul\":9767:9789   */\n      and\n        /* \"#utility.yul\":9817:9854   */\n      tag_207\n        /* \"#utility.yul\":9849:9853   */\n      dup7\n        /* \"#utility.yul\":9817:9854   */\n      tag_74\n      jump\t// in\n    tag_207:\n        /* \"#utility.yul\":9876:9877   */\n      0x00\n        /* \"#utility.yul\":9890:10098   */\n    tag_208:\n        /* \"#utility.yul\":9904:9911   */\n      dup3\n        /* \"#utility.yul\":9901:9902   */\n      dup2\n        /* \"#utility.yul\":9898:9912   */\n      lt\n        /* \"#utility.yul\":9890:10098   */\n      iszero\n      tag_210\n      jumpi\n        /* \"#utility.yul\":9983:9992   */\n      dup5\n        /* \"#utility.yul\":9978:9981   */\n      dup10\n        /* \"#utility.yul\":9974:9993   */\n      add\n        /* \"#utility.yul\":9968:9994   */\n      mload\n        /* \"#utility.yul\":9960:9966   */\n      dup3\n        /* \"#utility.yul\":9953:9995   */\n      sstore\n        /* \"#utility.yul\":10034:10035   */\n      0x01\n        /* \"#utility.yul\":10026:10032   */\n      dup3\n        /* \"#utility.yul\":10022:10036   */\n      add\n        /* \"#utility.yul\":10012:10036   */\n      swap2\n      pop\n        /* \"#utility.yul\":10081:10083   */\n      0x20\n        /* \"#utility.yul\":10070:10079   */\n      dup6\n        /* \"#utility.yul\":10066:10084   */\n      add\n        /* \"#utility.yul\":10053:10084   */\n      swap5\n      pop\n        /* \"#utility.yul\":9927:9931   */\n      0x20\n        /* \"#utility.yul\":9924:9925   */\n      dup2\n        /* \"#utility.yul\":9920:9932   */\n      add\n        /* \"#utility.yul\":9915:9932   */\n      swap1\n      pop\n        /* \"#utility.yul\":9890:10098   */\n      jump(tag_208)\n    tag_210:\n        /* \"#utility.yul\":10126:10132   */\n      dup7\n        /* \"#utility.yul\":10117:10124   */\n      dup4\n        /* \"#utility.yul\":10114:10133   */\n      lt\n        /* \"#utility.yul\":10111:10290   */\n      iszero\n      tag_211\n      jumpi\n        /* \"#utility.yul\":10184:10193   */\n      dup5\n        /* \"#utility.yul\":10179:10182   */\n      dup10\n        /* \"#utility.yul\":10175:10194   */\n      add\n        /* \"#utility.yul\":10169:10195   */\n      mload\n        /* \"#utility.yul\":10227:10275   */\n      tag_212\n        /* \"#utility.yul\":10269:10273   */\n      0x1f\n        /* \"#utility.yul\":10261:10267   */\n      dup10\n        /* \"#utility.yul\":10257:10274   */\n      and\n        /* \"#utility.yul\":10246:10255   */\n      dup3\n        /* \"#utility.yul\":10227:10275   */\n      tag_88\n      jump\t// in\n    tag_212:\n        /* \"#utility.yul\":10219:10225   */\n      dup4\n        /* \"#utility.yul\":10212:10276   */\n      sstore\n        /* \"#utility.yul\":10134:10290   */\n      pop\n        /* \"#utility.yul\":10111:10290   */\n    tag_211:\n        /* \"#utility.yul\":10336:10337   */\n      0x01\n        /* \"#utility.yul\":10332:10333   */\n      0x02\n        /* \"#utility.yul\":10324:10330   */\n      dup9\n        /* \"#utility.yul\":10320:10334   */\n      mul\n        /* \"#utility.yul\":10316:10338   */\n      add\n        /* \"#utility.yul\":10310:10314   */\n      dup9\n        /* \"#utility.yul\":10303:10339   */\n      sstore\n        /* \"#utility.yul\":9738:10349   */\n      pop\n      pop\n      pop\n        /* \"#utility.yul\":9701:10588   */\n    tag_203:\n      pop\n        /* \"#utility.yul\":9291:10594   */\n      pop\n      pop\n      pop\n        /* \"#utility.yul\":9199:10594   */\n      pop\n      pop\n      jump\t// out\n\n    auxdata: 0xa26469706673582212209d11d7106131abd90892b4845006e1b33c8ecd3e1e83a916ac667fd69ade6e4364736f6c634300081b0033\n}\n",
				"bytecode": {
					"linkReferences": {},
					"object": "6080604052348015600e575f5ffd5b50610a7b8061001c5f395ff3fe608060405234801561000f575f5ffd5b506004361061004a575f3560e01c80631046bc681461004e5780633e1829e31461006a578063644ae87714610086578063f96a181e146100b6575b5f5ffd5b610068600480360381019061006391906104f1565b6100e6565b005b610084600480360381019061007f9190610658565b6101f9565b005b6100a0600480360381019061009b91906106b2565b610282565b6040516100ad9190610750565b60405180910390f35b6100d060048036038101906100cb91906104f1565b610327565b6040516100dd9190610750565b60405180910390f35b5f5f5f3373ffffffffffffffffffffffffffffffffffffffff1673ffffffffffffffffffffffffffffffffffffffff1681526020019081526020015f205f8373ffffffffffffffffffffffffffffffffffffffff1673ffffffffffffffffffffffffffffffffffffffff1681526020019081526020015f2080546101699061079d565b905003610174575f5ffd5b5f5f3373ffffffffffffffffffffffffffffffffffffffff1673ffffffffffffffffffffffffffffffffffffffff1681526020019081526020015f205f8273ffffffffffffffffffffffffffffffffffffffff1673ffffffffffffffffffffffffffffffffffffffff1681526020019081526020015f205f6101f6919061042e565b50565b805f5f3373ffffffffffffffffffffffffffffffffffffffff1673ffffffffffffffffffffffffffffffffffffffff1681526020019081526020015f205f8473ffffffffffffffffffffffffffffffffffffffff1673ffffffffffffffffffffffffffffffffffffffff1681526020019081526020015f20908161027d9190610976565b505050565b5f602052815f5260405f20602052805f5260405f205f915091505080546102a89061079d565b80601f01602080910402602001604051908101604052809291908181526020018280546102d49061079d565b801561031f5780601f106102f65761010080835404028352916020019161031f565b820191905f5260205f20905b81548152906001019060200180831161030257829003601f168201915b505050505081565b60605f5f3373ffffffffffffffffffffffffffffffffffffffff1673ffffffffffffffffffffffffffffffffffffffff1681526020019081526020015f205f8373ffffffffffffffffffffffffffffffffffffffff1673ffffffffffffffffffffffffffffffffffffffff1681526020019081526020015f2080546103ab9061079d565b80601f01602080910402602001604051908101604052809291908181526020018280546103d79061079d565b80156104225780601f106103f957610100808354040283529160200191610422565b820191905f5260205f20905b81548152906001019060200180831161040557829003601f168201915b50505050509050919050565b50805461043a9061079d565b5f825580601f1061044b5750610468565b601f0160209004905f5260205f2090810190610467919061046b565b5b50565b5b80821115610482575f815f90555060010161046c565b5090565b5f604051905090565b5f5ffd5b5f5ffd5b5f73ffffffffffffffffffffffffffffffffffffffff82169050919050565b5f6104c082610497565b9050919050565b6104d0816104b6565b81146104da575f5ffd5b50565b5f813590506104eb816104c7565b92915050565b5f602082840312156105065761050561048f565b5b5f610513848285016104dd565b91505092915050565b5f5ffd5b5f5ffd5b5f601f19601f8301169050919050565b7f4e487b71000000000000000000000000000000000000000000000000000000005f52604160045260245ffd5b61056a82610524565b810181811067ffffffffffffffff8211171561058957610588610534565b5b80604052505050565b5f61059b610486565b90506105a78282610561565b919050565b5f67ffffffffffffffff8211156105c6576105c5610534565b5b6105cf82610524565b9050602081019050919050565b828183375f83830152505050565b5f6105fc6105f7846105ac565b610592565b90508281526020810184848401111561061857610617610520565b5b6106238482856105dc565b509392505050565b5f82601f83011261063f5761063e61051c565b5b813561064f8482602086016105ea565b91505092915050565b5f5f6040838503121561066e5761066d61048f565b5b5f61067b858286016104dd565b925050602083013567ffffffffffffffff81111561069c5761069b610493565b5b6106a88582860161062b565b9150509250929050565b5f5f604083850312156106c8576106c761048f565b5b5f6106d5858286016104dd565b92505060206106e6858286016104dd565b9150509250929050565b5f81519050919050565b5f82825260208201905092915050565b8281835e5f83830152505050565b5f610722826106f0565b61072c81856106fa565b935061073c81856020860161070a565b61074581610524565b840191505092915050565b5f6020820190508181035f8301526107688184610718565b905092915050565b7f4e487b71000000000000000000000000000000000000000000000000000000005f52602260045260245ffd5b5f60028204905060018216806107b457607f821691505b6020821081036107c7576107c6610770565b5b50919050565b5f819050815f5260205f209050919050565b5f6020601f8301049050919050565b5f82821b905092915050565b5f600883026108297fffffffffffffffffffffffffffffffffffffffffffffffffffffffffffffffff826107ee565b61083386836107ee565b95508019841693508086168417925050509392505050565b5f819050919050565b5f819050919050565b5f61087761087261086d8461084b565b610854565b61084b565b9050919050565b5f819050919050565b6108908361085d565b6108a461089c8261087e565b8484546107fa565b825550505050565b5f5f905090565b6108bb6108ac565b6108c6818484610887565b505050565b5b818110156108e9576108de5f826108b3565b6001810190506108cc565b5050565b601f82111561092e576108ff816107cd565b610908846107df565b81016020851015610917578190505b61092b610923856107df565b8301826108cb565b50505b505050565b5f82821c905092915050565b5f61094e5f1984600802610933565b1980831691505092915050565b5f610966838361093f565b9150826002028217905092915050565b61097f826106f0565b67ffffffffffffffff81111561099857610997610534565b5b6109a2825461079d565b6109ad8282856108ed565b5f60209050601f8311600181146109de575f84156109cc578287015190505b6109d6858261095b565b865550610a3d565b601f1984166109ec866107cd565b5f5b82811015610a13578489015182556001820191506020850194506020810190506109ee565b86831015610a305784890151610a2c601f89168261093f565b8355505b6001600288020188555050505b50505050505056fea26469706673582212209d11d7106131abd90892b4845006e1b33c8ecd3e1e83a916ac667fd69ade6e4364736f6c634300081b0033",
					"opcodes": "PUSH1 0x80 PUSH1 0x40 MSTORE CALLVALUE DUP1 ISZERO PUSH1 0xE JUMPI PUSH0 PUSH0 REVERT JUMPDEST POP PUSH2 0xA7B DUP1 PUSH2 0x1C PUSH0 CODECOPY PUSH0 RETURN INVALID PUSH1 0x80 PUSH1 0x40 MSTORE CALLVALUE DUP1 ISZERO PUSH2 0xF JUMPI PUSH0 PUSH0 REVERT JUMPDEST POP PUSH1 0x4 CALLDATASIZE LT PUSH2 0x4A JUMPI PUSH0 CALLDATALOAD PUSH1 0xE0 SHR DUP1 PUSH4 0x1046BC68 EQ PUSH2 0x4E JUMPI DUP1 PUSH4 0x3E1829E3 EQ PUSH2 0x6A JUMPI DUP1 PUSH4 0x644AE877 EQ PUSH2 0x86 JUMPI DUP1 PUSH4 0xF96A181E EQ PUSH2 0xB6 JUMPI JUMPDEST PUSH0 PUSH0 REVERT JUMPDEST PUSH2 0x68 PUSH1 0x4 DUP1 CALLDATASIZE SUB DUP2 ADD SWAP1 PUSH2 0x63 SWAP2 SWAP1 PUSH2 0x4F1 JUMP JUMPDEST PUSH2 0xE6 JUMP JUMPDEST STOP JUMPDEST PUSH2 0x84 PUSH1 0x4 DUP1 CALLDATASIZE SUB DUP2 ADD SWAP1 PUSH2 0x7F SWAP2 SWAP1 PUSH2 0x658 JUMP JUMPDEST PUSH2 0x1F9 JUMP JUMPDEST STOP JUMPDEST PUSH2 0xA0 PUSH1 0x4 DUP1 CALLDATASIZE SUB DUP2 ADD SWAP1 PUSH2 0x9B SWAP2 SWAP1 PUSH2 0x6B2 JUMP JUMPDEST PUSH2 0x282 JUMP JUMPDEST PUSH1 0x40 MLOAD PUSH2 0xAD SWAP2 SWAP1 PUSH2 0x750 JUMP JUMPDEST PUSH1 0x40 MLOAD DUP1 SWAP2 SUB SWAP1 RETURN JUMPDEST PUSH2 0xD0 PUSH1 0x4 DUP1 CALLDATASIZE SUB DUP2 ADD SWAP1 PUSH2 0xCB SWAP2 SWAP1 PUSH2 0x4F1 JUMP JUMPDEST PUSH2 0x327 JUMP JUMPDEST PUSH1 0x40 MLOAD PUSH2 0xDD SWAP2 SWAP1 PUSH2 0x750 JUMP JUMPDEST PUSH1 0x40 MLOAD DUP1 SWAP2 SUB SWAP1 RETURN JUMPDEST PUSH0 PUSH0 PUSH0 CALLER PUSH20 0xFFFFFFFFFFFFFFFFFFFFFFFFFFFFFFFFFFFFFFFF AND PUSH20 0xFFFFFFFFFFFFFFFFFFFFFFFFFFFFFFFFFFFFFFFF AND DUP2 MSTORE PUSH1 0x20 ADD SWAP1 DUP2 MSTORE PUSH1 0x20 ADD PUSH0 KECCAK256 PUSH0 DUP4 PUSH20 0xFFFFFFFFFFFFFFFFFFFFFFFFFFFFFFFFFFFFFFFF AND PUSH20 0xFFFFFFFFFFFFFFFFFFFFFFFFFFFFFFFFFFFFFFFF AND DUP2 MSTORE PUSH1 0x20 ADD SWAP1 DUP2 MSTORE PUSH1 0x20 ADD PUSH0 KECCAK256 DUP1 SLOAD PUSH2 0x169 SWAP1 PUSH2 0x79D JUMP JUMPDEST SWAP1 POP SUB PUSH2 0x174 JUMPI PUSH0 PUSH0 REVERT JUMPDEST PUSH0 PUSH0 CALLER PUSH20 0xFFFFFFFFFFFFFFFFFFFFFFFFFFFFFFFFFFFFFFFF AND PUSH20 0xFFFFFFFFFFFFFFFFFFFFFFFFFFFFFFFFFFFFFFFF AND DUP2 MSTORE PUSH1 0x20 ADD SWAP1 DUP2 MSTORE PUSH1 0x20 ADD PUSH0 KECCAK256 PUSH0 DUP3 PUSH20 0xFFFFFFFFFFFFFFFFFFFFFFFFFFFFFFFFFFFFFFFF AND PUSH20 0xFFFFFFFFFFFFFFFFFFFFFFFFFFFFFFFFFFFFFFFF AND DUP2 MSTORE PUSH1 0x20 ADD SWAP1 DUP2 MSTORE PUSH1 0x20 ADD PUSH0 KECCAK256 PUSH0 PUSH2 0x1F6 SWAP2 SWAP1 PUSH2 0x42E JUMP JUMPDEST POP JUMP JUMPDEST DUP1 PUSH0 PUSH0 CALLER PUSH20 0xFFFFFFFFFFFFFFFFFFFFFFFFFFFFFFFFFFFFFFFF AND PUSH20 0xFFFFFFFFFFFFFFFFFFFFFFFFFFFFFFFFFFFFFFFF AND DUP2 MSTORE PUSH1 0x20 ADD SWAP1 DUP2 MSTORE PUSH1 0x20 ADD PUSH0 KECCAK256 PUSH0 DUP5 PUSH20 0xFFFFFFFFFFFFFFFFFFFFFFFFFFFFFFFFFFFFFFFF AND PUSH20 0xFFFFFFFFFFFFFFFFFFFFFFFFFFFFFFFFFFFFFFFF AND DUP2 MSTORE PUSH1 0x20 ADD SWAP1 DUP2 MSTORE PUSH1 0x20 ADD PUSH0 KECCAK256 SWAP1 DUP2 PUSH2 0x27D SWAP2 SWAP1 PUSH2 0x976 JUMP JUMPDEST POP POP POP JUMP JUMPDEST PUSH0 PUSH1 0x20 MSTORE DUP2 PUSH0 MSTORE PUSH1 0x40 PUSH0 KECCAK256 PUSH1 0x20 MSTORE DUP1 PUSH0 MSTORE PUSH1 0x40 PUSH0 KECCAK256 PUSH0 SWAP2 POP SWAP2 POP POP DUP1 SLOAD PUSH2 0x2A8 SWAP1 PUSH2 0x79D JUMP JUMPDEST DUP1 PUSH1 0x1F ADD PUSH1 0x20 DUP1 SWAP2 DIV MUL PUSH1 0x20 ADD PUSH1 0x40 MLOAD SWAP1 DUP2 ADD PUSH1 0x40 MSTORE DUP1 SWAP3 SWAP2 SWAP1 DUP2 DUP2 MSTORE PUSH1 0x20 ADD DUP3 DUP1 SLOAD PUSH2 0x2D4 SWAP1 PUSH2 0x79D JUMP JUMPDEST DUP1 ISZERO PUSH2 0x31F JUMPI DUP1 PUSH1 0x1F LT PUSH2 0x2F6 JUMPI PUSH2 0x100 DUP1 DUP4 SLOAD DIV MUL DUP4 MSTORE SWAP2 PUSH1 0x20 ADD SWAP2 PUSH2 0x31F JUMP JUMPDEST DUP3 ADD SWAP2 SWAP1 PUSH0 MSTORE PUSH1 0x20 PUSH0 KECCAK256 SWAP1 JUMPDEST DUP2 SLOAD DUP2 MSTORE SWAP1 PUSH1 0x1 ADD SWAP1 PUSH1 0x20 ADD DUP1 DUP4 GT PUSH2 0x302 JUMPI DUP3 SWAP1 SUB PUSH1 0x1F AND DUP3 ADD SWAP2 JUMPDEST POP POP POP POP POP DUP2 JUMP JUMPDEST PUSH1 0x60 PUSH0 PUSH0 CALLER PUSH20 0xFFFFFFFFFFFFFFFFFFFFFFFFFFFFFFFFFFFFFFFF AND PUSH20 0xFFFFFFFFFFFFFFFFFFFFFFFFFFFFFFFFFFFFFFFF AND DUP2 MSTORE PUSH1 0x20 ADD SWAP1 DUP2 MSTORE PUSH1 0x20 ADD PUSH0 KECCAK256 PUSH0 DUP4 PUSH20 0xFFFFFFFFFFFFFFFFFFFFFFFFFFFFFFFFFFFFFFFF AND PUSH20 0xFFFFFFFFFFFFFFFFFFFFFFFFFFFFFFFFFFFFFFFF AND DUP2 MSTORE PUSH1 0x20 ADD SWAP1 DUP2 MSTORE PUSH1 0x20 ADD PUSH0 KECCAK256 DUP1 SLOAD PUSH2 0x3AB SWAP1 PUSH2 0x79D JUMP JUMPDEST DUP1 PUSH1 0x1F ADD PUSH1 0x20 DUP1 SWAP2 DIV MUL PUSH1 0x20 ADD PUSH1 0x40 MLOAD SWAP1 DUP2 ADD PUSH1 0x40 MSTORE DUP1 SWAP3 SWAP2 SWAP1 DUP2 DUP2 MSTORE PUSH1 0x20 ADD DUP3 DUP1 SLOAD PUSH2 0x3D7 SWAP1 PUSH2 0x79D JUMP JUMPDEST DUP1 ISZERO PUSH2 0x422 JUMPI DUP1 PUSH1 0x1F LT PUSH2 0x3F9 JUMPI PUSH2 0x100 DUP1 DUP4 SLOAD DIV MUL DUP4 MSTORE SWAP2 PUSH1 0x20 ADD SWAP2 PUSH2 0x422 JUMP JUMPDEST DUP3 ADD SWAP2 SWAP1 PUSH0 MSTORE PUSH1 0x20 PUSH0 KECCAK256 SWAP1 JUMPDEST DUP2 SLOAD DUP2 MSTORE SWAP1 PUSH1 0x1 ADD SWAP1 PUSH1 0x20 ADD DUP1 DUP4 GT PUSH2 0x405 JUMPI DUP3 SWAP1 SUB PUSH1 0x1F AND DUP3 ADD SWAP2 JUMPDEST POP POP POP POP POP SWAP1 POP SWAP2 SWAP1 POP JUMP JUMPDEST POP DUP1 SLOAD PUSH2 0x43A SWAP1 PUSH2 0x79D JUMP JUMPDEST PUSH0 DUP3 SSTORE DUP1 PUSH1 0x1F LT PUSH2 0x44B JUMPI POP PUSH2 0x468 JUMP JUMPDEST PUSH1 0x1F ADD PUSH1 0x20 SWAP1 DIV SWAP1 PUSH0 MSTORE PUSH1 0x20 PUSH0 KECCAK256 SWAP1 DUP2 ADD SWAP1 PUSH2 0x467 SWAP2 SWAP1 PUSH2 0x46B JUMP JUMPDEST JUMPDEST POP JUMP JUMPDEST JUMPDEST DUP1 DUP3 GT ISZERO PUSH2 0x482 JUMPI PUSH0 DUP2 PUSH0 SWAP1 SSTORE POP PUSH1 0x1 ADD PUSH2 0x46C JUMP JUMPDEST POP SWAP1 JUMP JUMPDEST PUSH0 PUSH1 0x40 MLOAD SWAP1 POP SWAP1 JUMP JUMPDEST PUSH0 PUSH0 REVERT JUMPDEST PUSH0 PUSH0 REVERT JUMPDEST PUSH0 PUSH20 0xFFFFFFFFFFFFFFFFFFFFFFFFFFFFFFFFFFFFFFFF DUP3 AND SWAP1 POP SWAP2 SWAP1 POP JUMP JUMPDEST PUSH0 PUSH2 0x4C0 DUP3 PUSH2 0x497 JUMP JUMPDEST SWAP1 POP SWAP2 SWAP1 POP JUMP JUMPDEST PUSH2 0x4D0 DUP2 PUSH2 0x4B6 JUMP JUMPDEST DUP2 EQ PUSH2 0x4DA JUMPI PUSH0 PUSH0 REVERT JUMPDEST POP JUMP JUMPDEST PUSH0 DUP2 CALLDATALOAD SWAP1 POP PUSH2 0x4EB DUP2 PUSH2 0x4C7 JUMP JUMPDEST SWAP3 SWAP2 POP POP JUMP JUMPDEST PUSH0 PUSH1 0x20 DUP3 DUP5 SUB SLT ISZERO PUSH2 0x506 JUMPI PUSH2 0x505 PUSH2 0x48F JUMP JUMPDEST JUMPDEST PUSH0 PUSH2 0x513 DUP5 DUP3 DUP6 ADD PUSH2 0x4DD JUMP JUMPDEST SWAP2 POP POP SWAP3 SWAP2 POP POP JUMP JUMPDEST PUSH0 PUSH0 REVERT JUMPDEST PUSH0 PUSH0 REVERT JUMPDEST PUSH0 PUSH1 0x1F NOT PUSH1 0x1F DUP4 ADD AND SWAP1 POP SWAP2 SWAP1 POP JUMP JUMPDEST PUSH32 0x4E487B7100000000000000000000000000000000000000000000000000000000 PUSH0 MSTORE PUSH1 0x41 PUSH1 0x4 MSTORE PUSH1 0x24 PUSH0 REVERT JUMPDEST PUSH2 0x56A DUP3 PUSH2 0x524 JUMP JUMPDEST DUP2 ADD DUP2 DUP2 LT PUSH8 0xFFFFFFFFFFFFFFFF DUP3 GT OR ISZERO PUSH2 0x589 JUMPI PUSH2 0x588 PUSH2 0x534 JUMP JUMPDEST JUMPDEST DUP1 PUSH1 0x40 MSTORE POP POP POP JUMP JUMPDEST PUSH0 PUSH2 0x59B PUSH2 0x486 JUMP JUMPDEST SWAP1 POP PUSH2 0x5A7 DUP3 DUP3 PUSH2 0x561 JUMP JUMPDEST SWAP2 SWAP1 POP JUMP JUMPDEST PUSH0 PUSH8 0xFFFFFFFFFFFFFFFF DUP3 GT ISZERO PUSH2 0x5C6 JUMPI PUSH2 0x5C5 PUSH2 0x534 JUMP JUMPDEST JUMPDEST PUSH2 0x5CF DUP3 PUSH2 0x524 JUMP JUMPDEST SWAP1 POP PUSH1 0x20 DUP2 ADD SWAP1 POP SWAP2 SWAP1 POP JUMP JUMPDEST DUP3 DUP2 DUP4 CALLDATACOPY PUSH0 DUP4 DUP4 ADD MSTORE POP POP POP JUMP JUMPDEST PUSH0 PUSH2 0x5FC PUSH2 0x5F7 DUP5 PUSH2 0x5AC JUMP JUMPDEST PUSH2 0x592 JUMP JUMPDEST SWAP1 POP DUP3 DUP2 MSTORE PUSH1 0x20 DUP2 ADD DUP5 DUP5 DUP5 ADD GT ISZERO PUSH2 0x618 JUMPI PUSH2 0x617 PUSH2 0x520 JUMP JUMPDEST JUMPDEST PUSH2 0x623 DUP5 DUP3 DUP6 PUSH2 0x5DC JUMP JUMPDEST POP SWAP4 SWAP3 POP POP POP JUMP JUMPDEST PUSH0 DUP3 PUSH1 0x1F DUP4 ADD SLT PUSH2 0x63F JUMPI PUSH2 0x63E PUSH2 0x51C JUMP JUMPDEST JUMPDEST DUP2 CALLDATALOAD PUSH2 0x64F DUP5 DUP3 PUSH1 0x20 DUP7 ADD PUSH2 0x5EA JUMP JUMPDEST SWAP2 POP POP SWAP3 SWAP2 POP POP JUMP JUMPDEST PUSH0 PUSH0 PUSH1 0x40 DUP4 DUP6 SUB SLT ISZERO PUSH2 0x66E JUMPI PUSH2 0x66D PUSH2 0x48F JUMP JUMPDEST JUMPDEST PUSH0 PUSH2 0x67B DUP6 DUP3 DUP7 ADD PUSH2 0x4DD JUMP JUMPDEST SWAP3 POP POP PUSH1 0x20 DUP4 ADD CALLDATALOAD PUSH8 0xFFFFFFFFFFFFFFFF DUP2 GT ISZERO PUSH2 0x69C JUMPI PUSH2 0x69B PUSH2 0x493 JUMP JUMPDEST JUMPDEST PUSH2 0x6A8 DUP6 DUP3 DUP7 ADD PUSH2 0x62B JUMP JUMPDEST SWAP2 POP POP SWAP3 POP SWAP3 SWAP1 POP JUMP JUMPDEST PUSH0 PUSH0 PUSH1 0x40 DUP4 DUP6 SUB SLT ISZERO PUSH2 0x6C8 JUMPI PUSH2 0x6C7 PUSH2 0x48F JUMP JUMPDEST JUMPDEST PUSH0 PUSH2 0x6D5 DUP6 DUP3 DUP7 ADD PUSH2 0x4DD JUMP JUMPDEST SWAP3 POP POP PUSH1 0x20 PUSH2 0x6E6 DUP6 DUP3 DUP7 ADD PUSH2 0x4DD JUMP JUMPDEST SWAP2 POP POP SWAP3 POP SWAP3 SWAP1 POP JUMP JUMPDEST PUSH0 DUP2 MLOAD SWAP1 POP SWAP2 SWAP1 POP JUMP JUMPDEST PUSH0 DUP3 DUP3 MSTORE PUSH1 0x20 DUP3 ADD SWAP1 POP SWAP3 SWAP2 POP POP JUMP JUMPDEST DUP3 DUP2 DUP4 MCOPY PUSH0 DUP4 DUP4 ADD MSTORE POP POP POP JUMP JUMPDEST PUSH0 PUSH2 0x722 DUP3 PUSH2 0x6F0 JUMP JUMPDEST PUSH2 0x72C DUP2 DUP6 PUSH2 0x6FA JUMP JUMPDEST SWAP4 POP PUSH2 0x73C DUP2 DUP6 PUSH1 0x20 DUP7 ADD PUSH2 0x70A JUMP JUMPDEST PUSH2 0x745 DUP2 PUSH2 0x524 JUMP JUMPDEST DUP5 ADD SWAP2 POP POP SWAP3 SWAP2 POP POP JUMP JUMPDEST PUSH0 PUSH1 0x20 DUP3 ADD SWAP1 POP DUP2 DUP2 SUB PUSH0 DUP4 ADD MSTORE PUSH2 0x768 DUP2 DUP5 PUSH2 0x718 JUMP JUMPDEST SWAP1 POP SWAP3 SWAP2 POP POP JUMP JUMPDEST PUSH32 0x4E487B7100000000000000000000000000000000000000000000000000000000 PUSH0 MSTORE PUSH1 0x22 PUSH1 0x4 MSTORE PUSH1 0x24 PUSH0 REVERT JUMPDEST PUSH0 PUSH1 0x2 DUP3 DIV SWAP1 POP PUSH1 0x1 DUP3 AND DUP1 PUSH2 0x7B4 JUMPI PUSH1 0x7F DUP3 AND SWAP2 POP JUMPDEST PUSH1 0x20 DUP3 LT DUP2 SUB PUSH2 0x7C7 JUMPI PUSH2 0x7C6 PUSH2 0x770 JUMP JUMPDEST JUMPDEST POP SWAP2 SWAP1 POP JUMP JUMPDEST PUSH0 DUP2 SWAP1 POP DUP2 PUSH0 MSTORE PUSH1 0x20 PUSH0 KECCAK256 SWAP1 POP SWAP2 SWAP1 POP JUMP JUMPDEST PUSH0 PUSH1 0x20 PUSH1 0x1F DUP4 ADD DIV SWAP1 POP SWAP2 SWAP1 POP JUMP JUMPDEST PUSH0 DUP3 DUP3 SHL SWAP1 POP SWAP3 SWAP2 POP POP JUMP JUMPDEST PUSH0 PUSH1 0x8 DUP4 MUL PUSH2 0x829 PUSH32 0xFFFFFFFFFFFFFFFFFFFFFFFFFFFFFFFFFFFFFFFFFFFFFFFFFFFFFFFFFFFFFFFF DUP3 PUSH2 0x7EE JUMP JUMPDEST PUSH2 0x833 DUP7 DUP4 PUSH2 0x7EE JUMP JUMPDEST SWAP6 POP DUP1 NOT DUP5 AND SWAP4 POP DUP1 DUP7 AND DUP5 OR SWAP3 POP POP POP SWAP4 SWAP3 POP POP POP JUMP JUMPDEST PUSH0 DUP2 SWAP1 POP SWAP2 SWAP1 POP JUMP JUMPDEST PUSH0 DUP2 SWAP1 POP SWAP2 SWAP1 POP JUMP JUMPDEST PUSH0 PUSH2 0x877 PUSH2 0x872 PUSH2 0x86D DUP5 PUSH2 0x84B JUMP JUMPDEST PUSH2 0x854 JUMP JUMPDEST PUSH2 0x84B JUMP JUMPDEST SWAP1 POP SWAP2 SWAP1 POP JUMP JUMPDEST PUSH0 DUP2 SWAP1 POP SWAP2 SWAP1 POP JUMP JUMPDEST PUSH2 0x890 DUP4 PUSH2 0x85D JUMP JUMPDEST PUSH2 0x8A4 PUSH2 0x89C DUP3 PUSH2 0x87E JUMP JUMPDEST DUP5 DUP5 SLOAD PUSH2 0x7FA JUMP JUMPDEST DUP3 SSTORE POP POP POP POP JUMP JUMPDEST PUSH0 PUSH0 SWAP1 POP SWAP1 JUMP JUMPDEST PUSH2 0x8BB PUSH2 0x8AC JUMP JUMPDEST PUSH2 0x8C6 DUP2 DUP5 DUP5 PUSH2 0x887 JUMP JUMPDEST POP POP POP JUMP JUMPDEST JUMPDEST DUP2 DUP2 LT ISZERO PUSH2 0x8E9 JUMPI PUSH2 0x8DE PUSH0 DUP3 PUSH2 0x8B3 JUMP JUMPDEST PUSH1 0x1 DUP2 ADD SWAP1 POP PUSH2 0x8CC JUMP JUMPDEST POP POP JUMP JUMPDEST PUSH1 0x1F DUP3 GT ISZERO PUSH2 0x92E JUMPI PUSH2 0x8FF DUP2 PUSH2 0x7CD JUMP JUMPDEST PUSH2 0x908 DUP5 PUSH2 0x7DF JUMP JUMPDEST DUP2 ADD PUSH1 0x20 DUP6 LT ISZERO PUSH2 0x917 JUMPI DUP2 SWAP1 POP JUMPDEST PUSH2 0x92B PUSH2 0x923 DUP6 PUSH2 0x7DF JUMP JUMPDEST DUP4 ADD DUP3 PUSH2 0x8CB JUMP JUMPDEST POP POP JUMPDEST POP POP POP JUMP JUMPDEST PUSH0 DUP3 DUP3 SHR SWAP1 POP SWAP3 SWAP2 POP POP JUMP JUMPDEST PUSH0 PUSH2 0x94E PUSH0 NOT DUP5 PUSH1 0x8 MUL PUSH2 0x933 JUMP JUMPDEST NOT DUP1 DUP4 AND SWAP2 POP POP SWAP3 SWAP2 POP POP JUMP JUMPDEST PUSH0 PUSH2 0x966 DUP4 DUP4 PUSH2 0x93F JUMP JUMPDEST SWAP2 POP DUP3 PUSH1 0x2 MUL DUP3 OR SWAP1 POP SWAP3 SWAP2 POP POP JUMP JUMPDEST PUSH2 0x97F DUP3 PUSH2 0x6F0 JUMP JUMPDEST PUSH8 0xFFFFFFFFFFFFFFFF DUP2 GT ISZERO PUSH2 0x998 JUMPI PUSH2 0x997 PUSH2 0x534 JUMP JUMPDEST JUMPDEST PUSH2 0x9A2 DUP3 SLOAD PUSH2 0x79D JUMP JUMPDEST PUSH2 0x9AD DUP3 DUP3 DUP6 PUSH2 0x8ED JUMP JUMPDEST PUSH0 PUSH1 0x20 SWAP1 POP PUSH1 0x1F DUP4 GT PUSH1 0x1 DUP2 EQ PUSH2 0x9DE JUMPI PUSH0 DUP5 ISZERO PUSH2 0x9CC JUMPI DUP3 DUP8 ADD MLOAD SWAP1 POP JUMPDEST PUSH2 0x9D6 DUP6 DUP3 PUSH2 0x95B JUMP JUMPDEST DUP7 SSTORE POP PUSH2 0xA3D JUMP JUMPDEST PUSH1 0x1F NOT DUP5 AND PUSH2 0x9EC DUP7 PUSH2 0x7CD JUMP JUMPDEST PUSH0 JUMPDEST DUP3 DUP2 LT ISZERO PUSH2 0xA13 JUMPI DUP5 DUP10 ADD MLOAD DUP3 SSTORE PUSH1 0x1 DUP3 ADD SWAP2 POP PUSH1 0x20 DUP6 ADD SWAP5 POP PUSH1 0x20 DUP2 ADD SWAP1 POP PUSH2 0x9EE JUMP JUMPDEST DUP7 DUP4 LT ISZERO PUSH2 0xA30 JUMPI DUP5 DUP10 ADD MLOAD PUSH2 0xA2C PUSH1 0x1F DUP10 AND DUP3 PUSH2 0x93F JUMP JUMPDEST DUP4 SSTORE POP JUMPDEST PUSH1 0x1 PUSH1 0x2 DUP9 MUL ADD DUP9 SSTORE POP POP POP JUMPDEST POP POP POP POP POP POP JUMP INVALID LOG2 PUSH5 0x6970667358 0x22 SLT KECCAK256 SWAP14 GT 0xD7 LT PUSH2 0x31AB 0xD9 ADDMOD SWAP3 0xB4 DUP5 POP MOD 0xE1 0xB3 EXTCODECOPY DUP15 0xCD RETURNDATACOPY 0x1E DUP4 0xA9 AND 0xAC PUSH7 0x7FD69ADE6E4364 PUSH20 0x6F6C634300081B00330000000000000000000000 "
				},
				"gasEstimates": {
					"creation": {
						"codeDepositCost": "536600",
						"executionCost": "566",
						"totalCost": "537166"
					},
					"external": {
						"agenda(address,address)": "infinite",
						"createContact(address,string)": "infinite",
						"deleteContact(address)": "infinite",
						"getContact(address)": "infinite"
					}
				},
				"methodIdentifiers": {
					"agenda(address,address)": "644ae877",
					"createContact(address,string)": "3e1829e3",
					"deleteContact(address)": "1046bc68",
					"getContact(address)": "f96a181e"
				}
			},
			"storageLayout": {
				"storage": [
					{
						"astId": 48,
						"contract": "contracts/Agenda.sol:Agenda3",
						"label": "agenda",
						"offset": 0,
						"slot": "0",
						"type": "t_mapping(t_address,t_mapping(t_address,t_string_storage))"
					}
				],
				"types": {
					"t_address": {
						"encoding": "inplace",
						"label": "address",
						"numberOfBytes": "20"
					},
					"t_mapping(t_address,t_mapping(t_address,t_string_storage))": {
						"encoding": "mapping",
						"key": "t_address",
						"label": "mapping(address => mapping(address => string))",
						"numberOfBytes": "32",
						"value": "t_mapping(t_address,t_string_storage)"
					},
					"t_mapping(t_address,t_string_storage)": {
						"encoding": "mapping",
						"key": "t_address",
						"label": "mapping(address => string)",
						"numberOfBytes": "32",
						"value": "t_string_storage"
					},
					"t_string_storage": {
						"encoding": "bytes",
						"label": "string",
						"numberOfBytes": "32"
					}
				}
			},
			"userdoc": {
				"kind": "user",
				"methods": {},
				"version": 1
			}
		}
	}
}