{
	"contracts/DBank.sol": {
		"DBnank": {
			"abi": [
				{
					"inputs": [],
					"stateMutability": "payable",
					"type": "constructor"
				},
				{
					"inputs": [
						{
							"internalType": "address",
							"name": "",
							"type": "address"
						}
					],
					"name": "borrowers",
					"outputs": [
						{
							"internalType": "uint256",
							"name": "",
							"type": "uint256"
						}
					],
					"stateMutability": "view",
					"type": "function"
				},
				{
					"inputs": [],
					"name": "checkBalance",
					"outputs": [
						{
							"internalType": "uint256",
							"name": "",
							"type": "uint256"
						}
					],
					"stateMutability": "view",
					"type": "function"
				},
				{
					"inputs": [],
					"name": "checkDebt",
					"outputs": [
						{
							"internalType": "uint256",
							"name": "",
							"type": "uint256"
						}
					],
					"stateMutability": "view",
					"type": "function"
				},
				{
					"inputs": [
						{
							"internalType": "address",
							"name": "",
							"type": "address"
						}
					],
					"name": "clients",
					"outputs": [
						{
							"internalType": "uint256",
							"name": "",
							"type": "uint256"
						}
					],
					"stateMutability": "view",
					"type": "function"
				},
				{
					"inputs": [],
					"name": "deposit",
					"outputs": [],
					"stateMutability": "payable",
					"type": "function"
				},
				{
					"inputs": [
						{
							"internalType": "uint256",
							"name": "amount",
							"type": "uint256"
						}
					],
					"name": "loan",
					"outputs": [],
					"stateMutability": "nonpayable",
					"type": "function"
				},
				{
					"inputs": [
						{
							"internalType": "uint256",
							"name": "amount",
							"type": "uint256"
						}
					],
					"name": "withdraw",
					"outputs": [],
					"stateMutability": "nonpayable",
					"type": "function"
				}
			],
			"devdoc": {
				"kind": "dev",
				"methods": {},
				"version": 1
			},
			"evm": {
				"assembly": "    /* \"contracts/DBank.sol\":65:1727  contract DBnank {... */\n  mstore(0x40, 0x80)\n    /* \"contracts/DBank.sol\":299:308  msg.value */\n  callvalue\n    /* \"contracts/DBank.sol\":286:296  bankBlance */\n  0x02\n    /* \"contracts/DBank.sol\":286:308  bankBlance = msg.value */\n  dup2\n  swap1\n  sstore\n  pop\n    /* \"contracts/DBank.sol\":65:1727  contract DBnank {... */\n  dataSize(sub_0)\n  dup1\n  dataOffset(sub_0)\n  0x00\n  codecopy\n  0x00\n  return\nstop\n\nsub_0: assembly {\n        /* \"contracts/DBank.sol\":65:1727  contract DBnank {... */\n      mstore(0x40, 0x80)\n      jumpi(tag_1, lt(calldatasize, 0x04))\n      shr(0xe0, calldataload(0x00))\n      dup1\n      0x65ee041b\n      gt\n      tag_9\n      jumpi\n      dup1\n      0x65ee041b\n      eq\n      tag_5\n      jumpi\n      dup1\n      0xbf5d50c4\n      eq\n      tag_6\n      jumpi\n      dup1\n      0xc71daccb\n      eq\n      tag_7\n      jumpi\n      dup1\n      0xd0e30db0\n      eq\n      tag_8\n      jumpi\n      jump(tag_1)\n    tag_9:\n      dup1\n      0x2e1a7d4d\n      eq\n      tag_2\n      jumpi\n      dup1\n      0x365a5306\n      eq\n      tag_3\n      jumpi\n      dup1\n      0x61eed2a9\n      eq\n      tag_4\n      jumpi\n    tag_1:\n      0x00\n      dup1\n      revert\n        /* \"contracts/DBank.sol\":737:1190  function withdraw (uint256 amount) external {... */\n    tag_2:\n      callvalue\n      dup1\n      iszero\n      tag_10\n      jumpi\n      0x00\n      dup1\n      revert\n    tag_10:\n      pop\n      tag_11\n      0x04\n      dup1\n      calldatasize\n      sub\n      dup2\n      add\n      swap1\n      tag_12\n      swap2\n      swap1\n      tag_13\n      jump\t// in\n    tag_12:\n      tag_14\n      jump\t// in\n    tag_11:\n      stop\n        /* \"contracts/DBank.sol\":1196:1522  function loan (uint256 amount) external {... */\n    tag_3:\n      callvalue\n      dup1\n      iszero\n      tag_15\n      jumpi\n      0x00\n      dup1\n      revert\n    tag_15:\n      pop\n      tag_16\n      0x04\n      dup1\n      calldatasize\n      sub\n      dup2\n      add\n      swap1\n      tag_17\n      swap2\n      swap1\n      tag_13\n      jump\t// in\n    tag_17:\n      tag_18\n      jump\t// in\n    tag_16:\n      stop\n        /* \"contracts/DBank.sol\":87:127  mapping (address => uint) public clients */\n    tag_4:\n      callvalue\n      dup1\n      iszero\n      tag_19\n      jumpi\n      0x00\n      dup1\n      revert\n    tag_19:\n      pop\n      tag_20\n      0x04\n      dup1\n      calldatasize\n      sub\n      dup2\n      add\n      swap1\n      tag_21\n      swap2\n      swap1\n      tag_22\n      jump\t// in\n    tag_21:\n      tag_23\n      jump\t// in\n    tag_20:\n      mload(0x40)\n      tag_24\n      swap2\n      swap1\n      tag_25\n      jump\t// in\n    tag_24:\n      mload(0x40)\n      dup1\n      swap2\n      sub\n      swap1\n      return\n        /* \"contracts/DBank.sol\":1627:1718  function checkDebt ()view public returns(uint){... */\n    tag_5:\n      callvalue\n      dup1\n      iszero\n      tag_26\n      jumpi\n      0x00\n      dup1\n      revert\n    tag_26:\n      pop\n      tag_27\n      tag_28\n      jump\t// in\n    tag_27:\n      mload(0x40)\n      tag_29\n      swap2\n      swap1\n      tag_25\n      jump\t// in\n    tag_29:\n      mload(0x40)\n      dup1\n      swap2\n      sub\n      swap1\n      return\n        /* \"contracts/DBank.sol\":133:175  mapping (address => uint) public borrowers */\n    tag_6:\n      callvalue\n      dup1\n      iszero\n      tag_30\n      jumpi\n      0x00\n      dup1\n      revert\n    tag_30:\n      pop\n      tag_31\n      0x04\n      dup1\n      calldatasize\n      sub\n      dup2\n      add\n      swap1\n      tag_32\n      swap2\n      swap1\n      tag_22\n      jump\t// in\n    tag_32:\n      tag_33\n      jump\t// in\n    tag_31:\n      mload(0x40)\n      tag_34\n      swap2\n      swap1\n      tag_25\n      jump\t// in\n    tag_34:\n      mload(0x40)\n      dup1\n      swap2\n      sub\n      swap1\n      return\n        /* \"contracts/DBank.sol\":1529:1621  function checkBalance ()view public returns(uint){... */\n    tag_7:\n      callvalue\n      dup1\n      iszero\n      tag_35\n      jumpi\n      0x00\n      dup1\n      revert\n    tag_35:\n      pop\n      tag_36\n      tag_37\n      jump\t// in\n    tag_36:\n      mload(0x40)\n      tag_38\n      swap2\n      swap1\n      tag_25\n      jump\t// in\n    tag_38:\n      mload(0x40)\n      dup1\n      swap2\n      sub\n      swap1\n      return\n        /* \"contracts/DBank.sol\":335:483  function deposit ()payable external {... */\n    tag_8:\n      tag_39\n      tag_40\n      jump\t// in\n    tag_39:\n      stop\n        /* \"contracts/DBank.sol\":737:1190  function withdraw (uint256 amount) external {... */\n    tag_14:\n        /* \"contracts/DBank.sol\":791:813  address payable client */\n      0x00\n        /* \"contracts/DBank.sol\":824:834  msg.sender */\n      caller\n        /* \"contracts/DBank.sol\":791:835  address payable client = payable(msg.sender) */\n      swap1\n      pop\n        /* \"contracts/DBank.sol\":891:894  100 */\n      0x64\n        /* \"contracts/DBank.sol\":885:887  10 */\n      0x0a\n        /* \"contracts/DBank.sol\":872:882  bankBlance */\n      sload(0x02)\n        /* \"contracts/DBank.sol\":872:887  bankBlance * 10 */\n      tag_42\n      swap2\n      swap1\n      tag_43\n      jump\t// in\n    tag_42:\n        /* \"contracts/DBank.sol\":871:894  (bankBlance * 10) / 100 */\n      tag_44\n      swap2\n      swap1\n      tag_45\n      jump\t// in\n    tag_44:\n        /* \"contracts/DBank.sol\":848:869  address(this).balance */\n      selfbalance\n        /* \"contracts/DBank.sol\":848:895  address(this).balance>((bankBlance * 10) / 100) */\n      gt\n        /* \"contracts/DBank.sol\":845:1183  if(address(this).balance>((bankBlance * 10) / 100)){... */\n      iszero\n      tag_46\n      jumpi\n        /* \"contracts/DBank.sol\":930:936  amount */\n      dup2\n        /* \"contracts/DBank.sol\":913:920  clients */\n      0x00\n        /* \"contracts/DBank.sol\":913:928  clients[client] */\n      dup1\n        /* \"contracts/DBank.sol\":921:927  client */\n      dup4\n        /* \"contracts/DBank.sol\":913:928  clients[client] */\n      0xffffffffffffffffffffffffffffffffffffffff\n      and\n      0xffffffffffffffffffffffffffffffffffffffff\n      and\n      dup2\n      mstore\n      0x20\n      add\n      swap1\n      dup2\n      mstore\n      0x20\n      add\n      0x00\n      keccak256\n      sload\n        /* \"contracts/DBank.sol\":913:936  clients[client]>=amount */\n      lt\n        /* \"contracts/DBank.sol\":910:1032  if(clients[client]>=amount){... */\n      tag_47\n      jumpi\n        /* \"contracts/DBank.sol\":974:980  amount */\n      dup2\n        /* \"contracts/DBank.sol\":951:958  clients */\n      0x00\n        /* \"contracts/DBank.sol\":951:970  clients[msg.sender] */\n      dup1\n        /* \"contracts/DBank.sol\":959:969  msg.sender */\n      caller\n        /* \"contracts/DBank.sol\":951:970  clients[msg.sender] */\n      0xffffffffffffffffffffffffffffffffffffffff\n      and\n      0xffffffffffffffffffffffffffffffffffffffff\n      and\n      dup2\n      mstore\n      0x20\n      add\n      swap1\n      dup2\n      mstore\n      0x20\n      add\n      0x00\n      keccak256\n      0x00\n        /* \"contracts/DBank.sol\":951:980  clients[msg.sender] -= amount */\n      dup3\n      dup3\n      sload\n      tag_48\n      swap2\n      swap1\n      tag_49\n      jump\t// in\n    tag_48:\n      swap3\n      pop\n      pop\n      dup2\n      swap1\n      sstore\n      pop\n        /* \"contracts/DBank.sol\":994:1000  client */\n      dup1\n        /* \"contracts/DBank.sol\":994:1009  client.transfer */\n      0xffffffffffffffffffffffffffffffffffffffff\n      and\n        /* \"contracts/DBank.sol\":994:1017  client.transfer(amount) */\n      0x08fc\n        /* \"contracts/DBank.sol\":1010:1016  amount */\n      dup4\n        /* \"contracts/DBank.sol\":994:1017  client.transfer(amount) */\n      swap1\n      dup2\n      iszero\n      mul\n      swap1\n      mload(0x40)\n      0x00\n      mload(0x40)\n      dup1\n      dup4\n      sub\n      dup2\n      dup6\n      dup9\n      dup9\n      call\n      swap4\n      pop\n      pop\n      pop\n      pop\n      iszero\n      dup1\n      iszero\n      tag_51\n      jumpi\n      returndatasize\n      0x00\n      dup1\n      returndatacopy\n      revert(0x00, returndatasize)\n    tag_51:\n      pop\n        /* \"contracts/DBank.sol\":910:1032  if(clients[client]>=amount){... */\n    tag_47:\n        /* \"contracts/DBank.sol\":845:1183  if(address(this).balance>((bankBlance * 10) / 100)){... */\n      jump(tag_52)\n    tag_46:\n        /* \"contracts/DBank.sol\":1092:1101  borrowers */\n      0x01\n        /* \"contracts/DBank.sol\":1092:1109  borrowers[client] */\n      0x00\n        /* \"contracts/DBank.sol\":1102:1108  client */\n      dup3\n        /* \"contracts/DBank.sol\":1092:1109  borrowers[client] */\n      0xffffffffffffffffffffffffffffffffffffffff\n      and\n      0xffffffffffffffffffffffffffffffffffffffff\n      and\n      dup2\n      mstore\n      0x20\n      add\n      swap1\n      dup2\n      mstore\n      0x20\n      add\n      0x00\n      keccak256\n      sload\n        /* \"contracts/DBank.sol\":1076:1083  clients */\n      0x00\n        /* \"contracts/DBank.sol\":1076:1091  clients[client] */\n      dup1\n        /* \"contracts/DBank.sol\":1084:1090  client */\n      dup4\n        /* \"contracts/DBank.sol\":1076:1091  clients[client] */\n      0xffffffffffffffffffffffffffffffffffffffff\n      and\n      0xffffffffffffffffffffffffffffffffffffffff\n      and\n      dup2\n      mstore\n      0x20\n      add\n      swap1\n      dup2\n      mstore\n      0x20\n      add\n      0x00\n      keccak256\n      sload\n        /* \"contracts/DBank.sol\":1076:1109  clients[client]-borrowers[client] */\n      tag_53\n      swap2\n      swap1\n      tag_49\n      jump\t// in\n    tag_53:\n        /* \"contracts/DBank.sol\":1068:1074  amount */\n      dup3\n        /* \"contracts/DBank.sol\":1068:1109  amount< clients[client]-borrowers[client] */\n      lt\n        /* \"contracts/DBank.sol\":1060:1172  require(amount< clients[client]-borrowers[client],'Solo puedes sacar la diferencia entra tus deudas y tu saldo') */\n      tag_54\n      jumpi\n      mload(0x40)\n      0x08c379a000000000000000000000000000000000000000000000000000000000\n      dup2\n      mstore\n      0x04\n      add\n      tag_55\n      swap1\n      tag_56\n      jump\t// in\n    tag_55:\n      mload(0x40)\n      dup1\n      swap2\n      sub\n      swap1\n      revert\n    tag_54:\n        /* \"contracts/DBank.sol\":845:1183  if(address(this).balance>((bankBlance * 10) / 100)){... */\n    tag_52:\n        /* \"contracts/DBank.sol\":781:1190  {... */\n      pop\n        /* \"contracts/DBank.sol\":737:1190  function withdraw (uint256 amount) external {... */\n      pop\n      jump\t// out\n        /* \"contracts/DBank.sol\":1196:1522  function loan (uint256 amount) external {... */\n    tag_18:\n        /* \"contracts/DBank.sol\":1246:1268  address payable client */\n      0x00\n        /* \"contracts/DBank.sol\":1279:1289  msg.sender */\n      caller\n        /* \"contracts/DBank.sol\":1246:1290  address payable client = payable(msg.sender) */\n      swap1\n      pop\n        /* \"contracts/DBank.sol\":1365:1371  amount */\n      dup2\n        /* \"contracts/DBank.sol\":1342:1363  address(this).balance */\n      selfbalance\n        /* \"contracts/DBank.sol\":1342:1371  address(this).balance>=amount */\n      lt\n      iszero\n        /* \"contracts/DBank.sol\":1341:1422  (address(this).balance>=amount)&&(address(this).balance>((bankBlance * 5) / 100)) */\n      dup1\n      iszero\n      tag_58\n      jumpi\n      pop\n        /* \"contracts/DBank.sol\":1417:1420  100 */\n      0x64\n        /* \"contracts/DBank.sol\":1412:1413  5 */\n      0x05\n        /* \"contracts/DBank.sol\":1399:1409  bankBlance */\n      sload(0x02)\n        /* \"contracts/DBank.sol\":1399:1413  bankBlance * 5 */\n      tag_59\n      swap2\n      swap1\n      tag_43\n      jump\t// in\n    tag_59:\n        /* \"contracts/DBank.sol\":1398:1420  (bankBlance * 5) / 100 */\n      tag_60\n      swap2\n      swap1\n      tag_45\n      jump\t// in\n    tag_60:\n        /* \"contracts/DBank.sol\":1375:1396  address(this).balance */\n      selfbalance\n        /* \"contracts/DBank.sol\":1375:1421  address(this).balance>((bankBlance * 5) / 100) */\n      gt\n        /* \"contracts/DBank.sol\":1341:1422  (address(this).balance>=amount)&&(address(this).balance>((bankBlance * 5) / 100)) */\n    tag_58:\n        /* \"contracts/DBank.sol\":1338:1516  if((address(this).balance>=amount)&&(address(this).balance>((bankBlance * 5) / 100))){... */\n      iszero\n      tag_61\n      jumpi\n        /* \"contracts/DBank.sol\":1462:1468  amount */\n      dup2\n        /* \"contracts/DBank.sol\":1437:1446  borrowers */\n      0x01\n        /* \"contracts/DBank.sol\":1437:1458  borrowers[msg.sender] */\n      0x00\n        /* \"contracts/DBank.sol\":1447:1457  msg.sender */\n      caller\n        /* \"contracts/DBank.sol\":1437:1458  borrowers[msg.sender] */\n      0xffffffffffffffffffffffffffffffffffffffff\n      and\n      0xffffffffffffffffffffffffffffffffffffffff\n      and\n      dup2\n      mstore\n      0x20\n      add\n      swap1\n      dup2\n      mstore\n      0x20\n      add\n      0x00\n      keccak256\n      0x00\n        /* \"contracts/DBank.sol\":1437:1468  borrowers[msg.sender] += amount */\n      dup3\n      dup3\n      sload\n      tag_62\n      swap2\n      swap1\n      tag_63\n      jump\t// in\n    tag_62:\n      swap3\n      pop\n      pop\n      dup2\n      swap1\n      sstore\n      pop\n        /* \"contracts/DBank.sol\":1482:1488  client */\n      dup1\n        /* \"contracts/DBank.sol\":1482:1497  client.transfer */\n      0xffffffffffffffffffffffffffffffffffffffff\n      and\n        /* \"contracts/DBank.sol\":1482:1505  client.transfer(amount) */\n      0x08fc\n        /* \"contracts/DBank.sol\":1498:1504  amount */\n      dup4\n        /* \"contracts/DBank.sol\":1482:1505  client.transfer(amount) */\n      swap1\n      dup2\n      iszero\n      mul\n      swap1\n      mload(0x40)\n      0x00\n      mload(0x40)\n      dup1\n      dup4\n      sub\n      dup2\n      dup6\n      dup9\n      dup9\n      call\n      swap4\n      pop\n      pop\n      pop\n      pop\n      iszero\n      dup1\n      iszero\n      tag_65\n      jumpi\n      returndatasize\n      0x00\n      dup1\n      returndatacopy\n      revert(0x00, returndatasize)\n    tag_65:\n      pop\n        /* \"contracts/DBank.sol\":1338:1516  if((address(this).balance>=amount)&&(address(this).balance>((bankBlance * 5) / 100))){... */\n    tag_61:\n        /* \"contracts/DBank.sol\":1236:1522  {... */\n      pop\n        /* \"contracts/DBank.sol\":1196:1522  function loan (uint256 amount) external {... */\n      pop\n      jump\t// out\n        /* \"contracts/DBank.sol\":87:127  mapping (address => uint) public clients */\n    tag_23:\n      mstore(0x20, 0x00)\n      dup1\n      0x00\n      mstore\n      keccak256(0x00, 0x40)\n      0x00\n      swap2\n      pop\n      swap1\n      pop\n      sload\n      dup2\n      jump\t// out\n        /* \"contracts/DBank.sol\":1627:1718  function checkDebt ()view public returns(uint){... */\n    tag_28:\n        /* \"contracts/DBank.sol\":1668:1672  uint */\n      0x00\n        /* \"contracts/DBank.sol\":1690:1699  borrowers */\n      0x01\n        /* \"contracts/DBank.sol\":1690:1711  borrowers[msg.sender] */\n      0x00\n        /* \"contracts/DBank.sol\":1700:1710  msg.sender */\n      caller\n        /* \"contracts/DBank.sol\":1690:1711  borrowers[msg.sender] */\n      0xffffffffffffffffffffffffffffffffffffffff\n      and\n      0xffffffffffffffffffffffffffffffffffffffff\n      and\n      dup2\n      mstore\n      0x20\n      add\n      swap1\n      dup2\n      mstore\n      0x20\n      add\n      0x00\n      keccak256\n      sload\n        /* \"contracts/DBank.sol\":1683:1711  return borrowers[msg.sender] */\n      swap1\n      pop\n        /* \"contracts/DBank.sol\":1627:1718  function checkDebt ()view public returns(uint){... */\n      swap1\n      jump\t// out\n        /* \"contracts/DBank.sol\":133:175  mapping (address => uint) public borrowers */\n    tag_33:\n      mstore(0x20, 0x01)\n      dup1\n      0x00\n      mstore\n      keccak256(0x00, 0x40)\n      0x00\n      swap2\n      pop\n      swap1\n      pop\n      sload\n      dup2\n      jump\t// out\n        /* \"contracts/DBank.sol\":1529:1621  function checkBalance ()view public returns(uint){... */\n    tag_37:\n        /* \"contracts/DBank.sol\":1573:1577  uint */\n      0x00\n        /* \"contracts/DBank.sol\":1595:1602  clients */\n      dup1\n        /* \"contracts/DBank.sol\":1595:1614  clients[msg.sender] */\n      0x00\n        /* \"contracts/DBank.sol\":1603:1613  msg.sender */\n      caller\n        /* \"contracts/DBank.sol\":1595:1614  clients[msg.sender] */\n      0xffffffffffffffffffffffffffffffffffffffff\n      and\n      0xffffffffffffffffffffffffffffffffffffffff\n      and\n      dup2\n      mstore\n      0x20\n      add\n      swap1\n      dup2\n      mstore\n      0x20\n      add\n      0x00\n      keccak256\n      sload\n        /* \"contracts/DBank.sol\":1588:1614  return clients[msg.sender] */\n      swap1\n      pop\n        /* \"contracts/DBank.sol\":1529:1621  function checkBalance ()view public returns(uint){... */\n      swap1\n      jump\t// out\n        /* \"contracts/DBank.sol\":335:483  function deposit ()payable external {... */\n    tag_40:\n        /* \"contracts/DBank.sol\":381:395  uint256 amount */\n      0x00\n        /* \"contracts/DBank.sol\":398:407  msg.value */\n      callvalue\n        /* \"contracts/DBank.sol\":381:407  uint256 amount = msg.value */\n      swap1\n      pop\n        /* \"contracts/DBank.sol\":440:446  amount */\n      dup1\n        /* \"contracts/DBank.sol\":417:424  clients */\n      0x00\n        /* \"contracts/DBank.sol\":417:436  clients[msg.sender] */\n      dup1\n        /* \"contracts/DBank.sol\":425:435  msg.sender */\n      caller\n        /* \"contracts/DBank.sol\":417:436  clients[msg.sender] */\n      0xffffffffffffffffffffffffffffffffffffffff\n      and\n      0xffffffffffffffffffffffffffffffffffffffff\n      and\n      dup2\n      mstore\n      0x20\n      add\n      swap1\n      dup2\n      mstore\n      0x20\n      add\n      0x00\n      keccak256\n      0x00\n        /* \"contracts/DBank.sol\":417:446  clients[msg.sender] += amount */\n      dup3\n      dup3\n      sload\n      tag_69\n      swap2\n      swap1\n      tag_63\n      jump\t// in\n    tag_69:\n      swap3\n      pop\n      pop\n      dup2\n      swap1\n      sstore\n      pop\n        /* \"contracts/DBank.sol\":470:476  amount */\n      dup1\n        /* \"contracts/DBank.sol\":456:466  bankBlance */\n      0x02\n      0x00\n        /* \"contracts/DBank.sol\":456:476  bankBlance += amount */\n      dup3\n      dup3\n      sload\n      tag_70\n      swap2\n      swap1\n      tag_63\n      jump\t// in\n    tag_70:\n      swap3\n      pop\n      pop\n      dup2\n      swap1\n      sstore\n      pop\n        /* \"contracts/DBank.sol\":371:483  {... */\n      pop\n        /* \"contracts/DBank.sol\":335:483  function deposit ()payable external {... */\n      jump\t// out\n        /* \"#utility.yul\":88:205   */\n    tag_72:\n        /* \"#utility.yul\":197:198   */\n      0x00\n        /* \"#utility.yul\":194:195   */\n      dup1\n        /* \"#utility.yul\":187:199   */\n      revert\n        /* \"#utility.yul\":334:411   */\n    tag_74:\n        /* \"#utility.yul\":371:378   */\n      0x00\n        /* \"#utility.yul\":400:405   */\n      dup2\n        /* \"#utility.yul\":389:405   */\n      swap1\n      pop\n        /* \"#utility.yul\":334:411   */\n      swap2\n      swap1\n      pop\n      jump\t// out\n        /* \"#utility.yul\":417:539   */\n    tag_75:\n        /* \"#utility.yul\":490:514   */\n      tag_93\n        /* \"#utility.yul\":508:513   */\n      dup2\n        /* \"#utility.yul\":490:514   */\n      tag_74\n      jump\t// in\n    tag_93:\n        /* \"#utility.yul\":483:488   */\n      dup2\n        /* \"#utility.yul\":480:515   */\n      eq\n        /* \"#utility.yul\":470:533   */\n      tag_94\n      jumpi\n        /* \"#utility.yul\":529:530   */\n      0x00\n        /* \"#utility.yul\":526:527   */\n      dup1\n        /* \"#utility.yul\":519:531   */\n      revert\n        /* \"#utility.yul\":470:533   */\n    tag_94:\n        /* \"#utility.yul\":417:539   */\n      pop\n      jump\t// out\n        /* \"#utility.yul\":545:684   */\n    tag_76:\n        /* \"#utility.yul\":591:596   */\n      0x00\n        /* \"#utility.yul\":629:635   */\n      dup2\n        /* \"#utility.yul\":616:636   */\n      calldataload\n        /* \"#utility.yul\":607:636   */\n      swap1\n      pop\n        /* \"#utility.yul\":645:678   */\n      tag_96\n        /* \"#utility.yul\":672:677   */\n      dup2\n        /* \"#utility.yul\":645:678   */\n      tag_75\n      jump\t// in\n    tag_96:\n        /* \"#utility.yul\":545:684   */\n      swap3\n      swap2\n      pop\n      pop\n      jump\t// out\n        /* \"#utility.yul\":690:1019   */\n    tag_13:\n        /* \"#utility.yul\":749:755   */\n      0x00\n        /* \"#utility.yul\":798:800   */\n      0x20\n        /* \"#utility.yul\":786:795   */\n      dup3\n        /* \"#utility.yul\":777:784   */\n      dup5\n        /* \"#utility.yul\":773:796   */\n      sub\n        /* \"#utility.yul\":769:801   */\n      slt\n        /* \"#utility.yul\":766:885   */\n      iszero\n      tag_98\n      jumpi\n        /* \"#utility.yul\":804:883   */\n      tag_99\n      tag_72\n      jump\t// in\n    tag_99:\n        /* \"#utility.yul\":766:885   */\n    tag_98:\n        /* \"#utility.yul\":924:925   */\n      0x00\n        /* \"#utility.yul\":949:1002   */\n      tag_100\n        /* \"#utility.yul\":994:1001   */\n      dup5\n        /* \"#utility.yul\":985:991   */\n      dup3\n        /* \"#utility.yul\":974:983   */\n      dup6\n        /* \"#utility.yul\":970:992   */\n      add\n        /* \"#utility.yul\":949:1002   */\n      tag_76\n      jump\t// in\n    tag_100:\n        /* \"#utility.yul\":939:1002   */\n      swap2\n      pop\n        /* \"#utility.yul\":895:1012   */\n      pop\n        /* \"#utility.yul\":690:1019   */\n      swap3\n      swap2\n      pop\n      pop\n      jump\t// out\n        /* \"#utility.yul\":1025:1151   */\n    tag_77:\n        /* \"#utility.yul\":1062:1069   */\n      0x00\n        /* \"#utility.yul\":1102:1144   */\n      0xffffffffffffffffffffffffffffffffffffffff\n        /* \"#utility.yul\":1095:1100   */\n      dup3\n        /* \"#utility.yul\":1091:1145   */\n      and\n        /* \"#utility.yul\":1080:1145   */\n      swap1\n      pop\n        /* \"#utility.yul\":1025:1151   */\n      swap2\n      swap1\n      pop\n      jump\t// out\n        /* \"#utility.yul\":1157:1253   */\n    tag_78:\n        /* \"#utility.yul\":1194:1201   */\n      0x00\n        /* \"#utility.yul\":1223:1247   */\n      tag_103\n        /* \"#utility.yul\":1241:1246   */\n      dup3\n        /* \"#utility.yul\":1223:1247   */\n      tag_77\n      jump\t// in\n    tag_103:\n        /* \"#utility.yul\":1212:1247   */\n      swap1\n      pop\n        /* \"#utility.yul\":1157:1253   */\n      swap2\n      swap1\n      pop\n      jump\t// out\n        /* \"#utility.yul\":1259:1381   */\n    tag_79:\n        /* \"#utility.yul\":1332:1356   */\n      tag_105\n        /* \"#utility.yul\":1350:1355   */\n      dup2\n        /* \"#utility.yul\":1332:1356   */\n      tag_78\n      jump\t// in\n    tag_105:\n        /* \"#utility.yul\":1325:1330   */\n      dup2\n        /* \"#utility.yul\":1322:1357   */\n      eq\n        /* \"#utility.yul\":1312:1375   */\n      tag_106\n      jumpi\n        /* \"#utility.yul\":1371:1372   */\n      0x00\n        /* \"#utility.yul\":1368:1369   */\n      dup1\n        /* \"#utility.yul\":1361:1373   */\n      revert\n        /* \"#utility.yul\":1312:1375   */\n    tag_106:\n        /* \"#utility.yul\":1259:1381   */\n      pop\n      jump\t// out\n        /* \"#utility.yul\":1387:1526   */\n    tag_80:\n        /* \"#utility.yul\":1433:1438   */\n      0x00\n        /* \"#utility.yul\":1471:1477   */\n      dup2\n        /* \"#utility.yul\":1458:1478   */\n      calldataload\n        /* \"#utility.yul\":1449:1478   */\n      swap1\n      pop\n        /* \"#utility.yul\":1487:1520   */\n      tag_108\n        /* \"#utility.yul\":1514:1519   */\n      dup2\n        /* \"#utility.yul\":1487:1520   */\n      tag_79\n      jump\t// in\n    tag_108:\n        /* \"#utility.yul\":1387:1526   */\n      swap3\n      swap2\n      pop\n      pop\n      jump\t// out\n        /* \"#utility.yul\":1532:1861   */\n    tag_22:\n        /* \"#utility.yul\":1591:1597   */\n      0x00\n        /* \"#utility.yul\":1640:1642   */\n      0x20\n        /* \"#utility.yul\":1628:1637   */\n      dup3\n        /* \"#utility.yul\":1619:1626   */\n      dup5\n        /* \"#utility.yul\":1615:1638   */\n      sub\n        /* \"#utility.yul\":1611:1643   */\n      slt\n        /* \"#utility.yul\":1608:1727   */\n      iszero\n      tag_110\n      jumpi\n        /* \"#utility.yul\":1646:1725   */\n      tag_111\n      tag_72\n      jump\t// in\n    tag_111:\n        /* \"#utility.yul\":1608:1727   */\n    tag_110:\n        /* \"#utility.yul\":1766:1767   */\n      0x00\n        /* \"#utility.yul\":1791:1844   */\n      tag_112\n        /* \"#utility.yul\":1836:1843   */\n      dup5\n        /* \"#utility.yul\":1827:1833   */\n      dup3\n        /* \"#utility.yul\":1816:1825   */\n      dup6\n        /* \"#utility.yul\":1812:1834   */\n      add\n        /* \"#utility.yul\":1791:1844   */\n      tag_80\n      jump\t// in\n    tag_112:\n        /* \"#utility.yul\":1781:1844   */\n      swap2\n      pop\n        /* \"#utility.yul\":1737:1854   */\n      pop\n        /* \"#utility.yul\":1532:1861   */\n      swap3\n      swap2\n      pop\n      pop\n      jump\t// out\n        /* \"#utility.yul\":1867:1985   */\n    tag_81:\n        /* \"#utility.yul\":1954:1978   */\n      tag_114\n        /* \"#utility.yul\":1972:1977   */\n      dup2\n        /* \"#utility.yul\":1954:1978   */\n      tag_74\n      jump\t// in\n    tag_114:\n        /* \"#utility.yul\":1949:1952   */\n      dup3\n        /* \"#utility.yul\":1942:1979   */\n      mstore\n        /* \"#utility.yul\":1867:1985   */\n      pop\n      pop\n      jump\t// out\n        /* \"#utility.yul\":1991:2213   */\n    tag_25:\n        /* \"#utility.yul\":2084:2088   */\n      0x00\n        /* \"#utility.yul\":2122:2124   */\n      0x20\n        /* \"#utility.yul\":2111:2120   */\n      dup3\n        /* \"#utility.yul\":2107:2125   */\n      add\n        /* \"#utility.yul\":2099:2125   */\n      swap1\n      pop\n        /* \"#utility.yul\":2135:2206   */\n      tag_116\n        /* \"#utility.yul\":2203:2204   */\n      0x00\n        /* \"#utility.yul\":2192:2201   */\n      dup4\n        /* \"#utility.yul\":2188:2205   */\n      add\n        /* \"#utility.yul\":2179:2185   */\n      dup5\n        /* \"#utility.yul\":2135:2206   */\n      tag_81\n      jump\t// in\n    tag_116:\n        /* \"#utility.yul\":1991:2213   */\n      swap3\n      swap2\n      pop\n      pop\n      jump\t// out\n        /* \"#utility.yul\":2219:2399   */\n    tag_82:\n        /* \"#utility.yul\":2267:2344   */\n      0x4e487b7100000000000000000000000000000000000000000000000000000000\n        /* \"#utility.yul\":2264:2265   */\n      0x00\n        /* \"#utility.yul\":2257:2345   */\n      mstore\n        /* \"#utility.yul\":2364:2368   */\n      0x11\n        /* \"#utility.yul\":2361:2362   */\n      0x04\n        /* \"#utility.yul\":2354:2369   */\n      mstore\n        /* \"#utility.yul\":2388:2392   */\n      0x24\n        /* \"#utility.yul\":2385:2386   */\n      0x00\n        /* \"#utility.yul\":2378:2393   */\n      revert\n        /* \"#utility.yul\":2405:2815   */\n    tag_43:\n        /* \"#utility.yul\":2445:2452   */\n      0x00\n        /* \"#utility.yul\":2468:2488   */\n      tag_119\n        /* \"#utility.yul\":2486:2487   */\n      dup3\n        /* \"#utility.yul\":2468:2488   */\n      tag_74\n      jump\t// in\n    tag_119:\n        /* \"#utility.yul\":2463:2488   */\n      swap2\n      pop\n        /* \"#utility.yul\":2502:2522   */\n      tag_120\n        /* \"#utility.yul\":2520:2521   */\n      dup4\n        /* \"#utility.yul\":2502:2522   */\n      tag_74\n      jump\t// in\n    tag_120:\n        /* \"#utility.yul\":2497:2522   */\n      swap3\n      pop\n        /* \"#utility.yul\":2557:2558   */\n      dup3\n        /* \"#utility.yul\":2554:2555   */\n      dup3\n        /* \"#utility.yul\":2550:2559   */\n      mul\n        /* \"#utility.yul\":2579:2609   */\n      tag_121\n        /* \"#utility.yul\":2597:2608   */\n      dup2\n        /* \"#utility.yul\":2579:2609   */\n      tag_74\n      jump\t// in\n    tag_121:\n        /* \"#utility.yul\":2568:2609   */\n      swap2\n      pop\n        /* \"#utility.yul\":2758:2759   */\n      dup3\n        /* \"#utility.yul\":2749:2756   */\n      dup3\n        /* \"#utility.yul\":2745:2760   */\n      div\n        /* \"#utility.yul\":2742:2743   */\n      dup5\n        /* \"#utility.yul\":2739:2761   */\n      eq\n        /* \"#utility.yul\":2719:2720   */\n      dup4\n        /* \"#utility.yul\":2712:2721   */\n      iszero\n        /* \"#utility.yul\":2692:2775   */\n      or\n        /* \"#utility.yul\":2669:2808   */\n      tag_122\n      jumpi\n        /* \"#utility.yul\":2788:2806   */\n      tag_123\n      tag_82\n      jump\t// in\n    tag_123:\n        /* \"#utility.yul\":2669:2808   */\n    tag_122:\n        /* \"#utility.yul\":2453:2815   */\n      pop\n        /* \"#utility.yul\":2405:2815   */\n      swap3\n      swap2\n      pop\n      pop\n      jump\t// out\n        /* \"#utility.yul\":2821:3001   */\n    tag_83:\n        /* \"#utility.yul\":2869:2946   */\n      0x4e487b7100000000000000000000000000000000000000000000000000000000\n        /* \"#utility.yul\":2866:2867   */\n      0x00\n        /* \"#utility.yul\":2859:2947   */\n      mstore\n        /* \"#utility.yul\":2966:2970   */\n      0x12\n        /* \"#utility.yul\":2963:2964   */\n      0x04\n        /* \"#utility.yul\":2956:2971   */\n      mstore\n        /* \"#utility.yul\":2990:2994   */\n      0x24\n        /* \"#utility.yul\":2987:2988   */\n      0x00\n        /* \"#utility.yul\":2980:2995   */\n      revert\n        /* \"#utility.yul\":3007:3192   */\n    tag_45:\n        /* \"#utility.yul\":3047:3048   */\n      0x00\n        /* \"#utility.yul\":3064:3084   */\n      tag_126\n        /* \"#utility.yul\":3082:3083   */\n      dup3\n        /* \"#utility.yul\":3064:3084   */\n      tag_74\n      jump\t// in\n    tag_126:\n        /* \"#utility.yul\":3059:3084   */\n      swap2\n      pop\n        /* \"#utility.yul\":3098:3118   */\n      tag_127\n        /* \"#utility.yul\":3116:3117   */\n      dup4\n        /* \"#utility.yul\":3098:3118   */\n      tag_74\n      jump\t// in\n    tag_127:\n        /* \"#utility.yul\":3093:3118   */\n      swap3\n      pop\n        /* \"#utility.yul\":3137:3138   */\n      dup3\n        /* \"#utility.yul\":3127:3162   */\n      tag_128\n      jumpi\n        /* \"#utility.yul\":3142:3160   */\n      tag_129\n      tag_83\n      jump\t// in\n    tag_129:\n        /* \"#utility.yul\":3127:3162   */\n    tag_128:\n        /* \"#utility.yul\":3184:3185   */\n      dup3\n        /* \"#utility.yul\":3181:3182   */\n      dup3\n        /* \"#utility.yul\":3177:3186   */\n      div\n        /* \"#utility.yul\":3172:3186   */\n      swap1\n      pop\n        /* \"#utility.yul\":3007:3192   */\n      swap3\n      swap2\n      pop\n      pop\n      jump\t// out\n        /* \"#utility.yul\":3198:3392   */\n    tag_49:\n        /* \"#utility.yul\":3238:3242   */\n      0x00\n        /* \"#utility.yul\":3258:3278   */\n      tag_131\n        /* \"#utility.yul\":3276:3277   */\n      dup3\n        /* \"#utility.yul\":3258:3278   */\n      tag_74\n      jump\t// in\n    tag_131:\n        /* \"#utility.yul\":3253:3278   */\n      swap2\n      pop\n        /* \"#utility.yul\":3292:3312   */\n      tag_132\n        /* \"#utility.yul\":3310:3311   */\n      dup4\n        /* \"#utility.yul\":3292:3312   */\n      tag_74\n      jump\t// in\n    tag_132:\n        /* \"#utility.yul\":3287:3312   */\n      swap3\n      pop\n        /* \"#utility.yul\":3336:3337   */\n      dup3\n        /* \"#utility.yul\":3333:3334   */\n      dup3\n        /* \"#utility.yul\":3329:3338   */\n      sub\n        /* \"#utility.yul\":3321:3338   */\n      swap1\n      pop\n        /* \"#utility.yul\":3360:3361   */\n      dup2\n        /* \"#utility.yul\":3354:3358   */\n      dup2\n        /* \"#utility.yul\":3351:3362   */\n      gt\n        /* \"#utility.yul\":3348:3385   */\n      iszero\n      tag_133\n      jumpi\n        /* \"#utility.yul\":3365:3383   */\n      tag_134\n      tag_82\n      jump\t// in\n    tag_134:\n        /* \"#utility.yul\":3348:3385   */\n    tag_133:\n        /* \"#utility.yul\":3198:3392   */\n      swap3\n      swap2\n      pop\n      pop\n      jump\t// out\n        /* \"#utility.yul\":3398:3567   */\n    tag_84:\n        /* \"#utility.yul\":3482:3493   */\n      0x00\n        /* \"#utility.yul\":3516:3522   */\n      dup3\n        /* \"#utility.yul\":3511:3514   */\n      dup3\n        /* \"#utility.yul\":3504:3523   */\n      mstore\n        /* \"#utility.yul\":3556:3560   */\n      0x20\n        /* \"#utility.yul\":3551:3554   */\n      dup3\n        /* \"#utility.yul\":3547:3561   */\n      add\n        /* \"#utility.yul\":3532:3561   */\n      swap1\n      pop\n        /* \"#utility.yul\":3398:3567   */\n      swap3\n      swap2\n      pop\n      pop\n      jump\t// out\n        /* \"#utility.yul\":3573:3819   */\n    tag_85:\n        /* \"#utility.yul\":3713:3747   */\n      0x536f6c6f20707565646573207361636172206c61206469666572656e63696120\n        /* \"#utility.yul\":3709:3710   */\n      0x00\n        /* \"#utility.yul\":3701:3707   */\n      dup3\n        /* \"#utility.yul\":3697:3711   */\n      add\n        /* \"#utility.yul\":3690:3748   */\n      mstore\n        /* \"#utility.yul\":3782:3811   */\n      0x656e747261207475732064657564617320792074752073616c646f0000000000\n        /* \"#utility.yul\":3777:3779   */\n      0x20\n        /* \"#utility.yul\":3769:3775   */\n      dup3\n        /* \"#utility.yul\":3765:3780   */\n      add\n        /* \"#utility.yul\":3758:3812   */\n      mstore\n        /* \"#utility.yul\":3573:3819   */\n      pop\n      jump\t// out\n        /* \"#utility.yul\":3825:4191   */\n    tag_86:\n        /* \"#utility.yul\":3967:3970   */\n      0x00\n        /* \"#utility.yul\":3988:4055   */\n      tag_138\n        /* \"#utility.yul\":4052:4054   */\n      0x3b\n        /* \"#utility.yul\":4047:4050   */\n      dup4\n        /* \"#utility.yul\":3988:4055   */\n      tag_84\n      jump\t// in\n    tag_138:\n        /* \"#utility.yul\":3981:4055   */\n      swap2\n      pop\n        /* \"#utility.yul\":4064:4157   */\n      tag_139\n        /* \"#utility.yul\":4153:4156   */\n      dup3\n        /* \"#utility.yul\":4064:4157   */\n      tag_85\n      jump\t// in\n    tag_139:\n        /* \"#utility.yul\":4182:4184   */\n      0x40\n        /* \"#utility.yul\":4177:4180   */\n      dup3\n        /* \"#utility.yul\":4173:4185   */\n      add\n        /* \"#utility.yul\":4166:4185   */\n      swap1\n      pop\n        /* \"#utility.yul\":3825:4191   */\n      swap2\n      swap1\n      pop\n      jump\t// out\n        /* \"#utility.yul\":4197:4616   */\n    tag_56:\n        /* \"#utility.yul\":4363:4367   */\n      0x00\n        /* \"#utility.yul\":4401:4403   */\n      0x20\n        /* \"#utility.yul\":4390:4399   */\n      dup3\n        /* \"#utility.yul\":4386:4404   */\n      add\n        /* \"#utility.yul\":4378:4404   */\n      swap1\n      pop\n        /* \"#utility.yul\":4450:4459   */\n      dup2\n        /* \"#utility.yul\":4444:4448   */\n      dup2\n        /* \"#utility.yul\":4440:4460   */\n      sub\n        /* \"#utility.yul\":4436:4437   */\n      0x00\n        /* \"#utility.yul\":4425:4434   */\n      dup4\n        /* \"#utility.yul\":4421:4438   */\n      add\n        /* \"#utility.yul\":4414:4461   */\n      mstore\n        /* \"#utility.yul\":4478:4609   */\n      tag_141\n        /* \"#utility.yul\":4604:4608   */\n      dup2\n        /* \"#utility.yul\":4478:4609   */\n      tag_86\n      jump\t// in\n    tag_141:\n        /* \"#utility.yul\":4470:4609   */\n      swap1\n      pop\n        /* \"#utility.yul\":4197:4616   */\n      swap2\n      swap1\n      pop\n      jump\t// out\n        /* \"#utility.yul\":4622:4813   */\n    tag_63:\n        /* \"#utility.yul\":4662:4665   */\n      0x00\n        /* \"#utility.yul\":4681:4701   */\n      tag_143\n        /* \"#utility.yul\":4699:4700   */\n      dup3\n        /* \"#utility.yul\":4681:4701   */\n      tag_74\n      jump\t// in\n    tag_143:\n        /* \"#utility.yul\":4676:4701   */\n      swap2\n      pop\n        /* \"#utility.yul\":4715:4735   */\n      tag_144\n        /* \"#utility.yul\":4733:4734   */\n      dup4\n        /* \"#utility.yul\":4715:4735   */\n      tag_74\n      jump\t// in\n    tag_144:\n        /* \"#utility.yul\":4710:4735   */\n      swap3\n      pop\n        /* \"#utility.yul\":4758:4759   */\n      dup3\n        /* \"#utility.yul\":4755:4756   */\n      dup3\n        /* \"#utility.yul\":4751:4760   */\n      add\n        /* \"#utility.yul\":4744:4760   */\n      swap1\n      pop\n        /* \"#utility.yul\":4779:4782   */\n      dup1\n        /* \"#utility.yul\":4776:4777   */\n      dup3\n        /* \"#utility.yul\":4773:4783   */\n      gt\n        /* \"#utility.yul\":4770:4806   */\n      iszero\n      tag_145\n      jumpi\n        /* \"#utility.yul\":4786:4804   */\n      tag_146\n      tag_82\n      jump\t// in\n    tag_146:\n        /* \"#utility.yul\":4770:4806   */\n    tag_145:\n        /* \"#utility.yul\":4622:4813   */\n      swap3\n      swap2\n      pop\n      pop\n      jump\t// out\n\n    auxdata: 0xa2646970667358221220866cf04e438e8a6b071893f68436a80591753d5971aa4c01391946024a77692464736f6c634300081a0033\n}\n",
				"bytecode": {
					"linkReferences": {},
					"object": "60806040523460028190555061086c806100185f395ff3fe60806040526004361061006f575f3560e01c806365ee041b1161004d57806365ee041b146100ff578063bf5d50c414610129578063c71daccb14610165578063d0e30db01461018f5761006f565b80632e1a7d4d14610073578063365a53061461009b57806361eed2a9146100c3575b5f80fd5b34801561007e575f80fd5b506100996004803603810190610094919061058f565b610199565b005b3480156100a6575f80fd5b506100c160048036038101906100bc919061058f565b610369565b005b3480156100ce575f80fd5b506100e960048036038101906100e49190610614565b610437565b6040516100f6919061064e565b60405180910390f35b34801561010a575f80fd5b5061011361044b565b604051610120919061064e565b60405180910390f35b348015610134575f80fd5b5061014f600480360381019061014a9190610614565b61048f565b60405161015c919061064e565b60405180910390f35b348015610170575f80fd5b506101796104a4565b604051610186919061064e565b60405180910390f35b6101976104e7565b005b5f3390506064600a6002546101ae9190610694565b6101b89190610702565b47111561029e57815f808373ffffffffffffffffffffffffffffffffffffffff1673ffffffffffffffffffffffffffffffffffffffff1681526020019081526020015f20541061029957815f803373ffffffffffffffffffffffffffffffffffffffff1673ffffffffffffffffffffffffffffffffffffffff1681526020019081526020015f205f82825461024d9190610732565b925050819055508073ffffffffffffffffffffffffffffffffffffffff166108fc8390811502906040515f60405180830381858888f19350505050158015610297573d5f803e3d5ffd5b505b610365565b60015f8273ffffffffffffffffffffffffffffffffffffffff1673ffffffffffffffffffffffffffffffffffffffff1681526020019081526020015f20545f808373ffffffffffffffffffffffffffffffffffffffff1673ffffffffffffffffffffffffffffffffffffffff1681526020019081526020015f20546103239190610732565b8210610364576040517f08c379a000000000000000000000000000000000000000000000000000000000815260040161035b906107e5565b60405180910390fd5b5b5050565b5f3390508147101580156103965750606460056002546103899190610694565b6103939190610702565b47115b15610433578160015f3373ffffffffffffffffffffffffffffffffffffffff1673ffffffffffffffffffffffffffffffffffffffff1681526020019081526020015f205f8282546103e79190610803565b925050819055508073ffffffffffffffffffffffffffffffffffffffff166108fc8390811502906040515f60405180830381858888f19350505050158015610431573d5f803e3d5ffd5b505b5050565b5f602052805f5260405f205f915090505481565b5f60015f3373ffffffffffffffffffffffffffffffffffffffff1673ffffffffffffffffffffffffffffffffffffffff1681526020019081526020015f2054905090565b6001602052805f5260405f205f915090505481565b5f805f3373ffffffffffffffffffffffffffffffffffffffff1673ffffffffffffffffffffffffffffffffffffffff1681526020019081526020015f2054905090565b5f349050805f803373ffffffffffffffffffffffffffffffffffffffff1673ffffffffffffffffffffffffffffffffffffffff1681526020019081526020015f205f8282546105369190610803565b925050819055508060025f82825461054e9190610803565b9250508190555050565b5f80fd5b5f819050919050565b61056e8161055c565b8114610578575f80fd5b50565b5f8135905061058981610565565b92915050565b5f602082840312156105a4576105a3610558565b5b5f6105b18482850161057b565b91505092915050565b5f73ffffffffffffffffffffffffffffffffffffffff82169050919050565b5f6105e3826105ba565b9050919050565b6105f3816105d9565b81146105fd575f80fd5b50565b5f8135905061060e816105ea565b92915050565b5f6020828403121561062957610628610558565b5b5f61063684828501610600565b91505092915050565b6106488161055c565b82525050565b5f6020820190506106615f83018461063f565b92915050565b7f4e487b71000000000000000000000000000000000000000000000000000000005f52601160045260245ffd5b5f61069e8261055c565b91506106a98361055c565b92508282026106b78161055c565b915082820484148315176106ce576106cd610667565b5b5092915050565b7f4e487b71000000000000000000000000000000000000000000000000000000005f52601260045260245ffd5b5f61070c8261055c565b91506107178361055c565b925082610727576107266106d5565b5b828204905092915050565b5f61073c8261055c565b91506107478361055c565b925082820390508181111561075f5761075e610667565b5b92915050565b5f82825260208201905092915050565b7f536f6c6f20707565646573207361636172206c61206469666572656e636961205f8201527f656e747261207475732064657564617320792074752073616c646f0000000000602082015250565b5f6107cf603b83610765565b91506107da82610775565b604082019050919050565b5f6020820190508181035f8301526107fc816107c3565b9050919050565b5f61080d8261055c565b91506108188361055c565b92508282019050808211156108305761082f610667565b5b9291505056fea2646970667358221220866cf04e438e8a6b071893f68436a80591753d5971aa4c01391946024a77692464736f6c634300081a0033",
					"opcodes": "PUSH1 0x80 PUSH1 0x40 MSTORE CALLVALUE PUSH1 0x2 DUP2 SWAP1 SSTORE POP PUSH2 0x86C DUP1 PUSH2 0x18 PUSH0 CODECOPY PUSH0 RETURN INVALID PUSH1 0x80 PUSH1 0x40 MSTORE PUSH1 0x4 CALLDATASIZE LT PUSH2 0x6F JUMPI PUSH0 CALLDATALOAD PUSH1 0xE0 SHR DUP1 PUSH4 0x65EE041B GT PUSH2 0x4D JUMPI DUP1 PUSH4 0x65EE041B EQ PUSH2 0xFF JUMPI DUP1 PUSH4 0xBF5D50C4 EQ PUSH2 0x129 JUMPI DUP1 PUSH4 0xC71DACCB EQ PUSH2 0x165 JUMPI DUP1 PUSH4 0xD0E30DB0 EQ PUSH2 0x18F JUMPI PUSH2 0x6F JUMP JUMPDEST DUP1 PUSH4 0x2E1A7D4D EQ PUSH2 0x73 JUMPI DUP1 PUSH4 0x365A5306 EQ PUSH2 0x9B JUMPI DUP1 PUSH4 0x61EED2A9 EQ PUSH2 0xC3 JUMPI JUMPDEST PUSH0 DUP1 REVERT JUMPDEST CALLVALUE DUP1 ISZERO PUSH2 0x7E JUMPI PUSH0 DUP1 REVERT JUMPDEST POP PUSH2 0x99 PUSH1 0x4 DUP1 CALLDATASIZE SUB DUP2 ADD SWAP1 PUSH2 0x94 SWAP2 SWAP1 PUSH2 0x58F JUMP JUMPDEST PUSH2 0x199 JUMP JUMPDEST STOP JUMPDEST CALLVALUE DUP1 ISZERO PUSH2 0xA6 JUMPI PUSH0 DUP1 REVERT JUMPDEST POP PUSH2 0xC1 PUSH1 0x4 DUP1 CALLDATASIZE SUB DUP2 ADD SWAP1 PUSH2 0xBC SWAP2 SWAP1 PUSH2 0x58F JUMP JUMPDEST PUSH2 0x369 JUMP JUMPDEST STOP JUMPDEST CALLVALUE DUP1 ISZERO PUSH2 0xCE JUMPI PUSH0 DUP1 REVERT JUMPDEST POP PUSH2 0xE9 PUSH1 0x4 DUP1 CALLDATASIZE SUB DUP2 ADD SWAP1 PUSH2 0xE4 SWAP2 SWAP1 PUSH2 0x614 JUMP JUMPDEST PUSH2 0x437 JUMP JUMPDEST PUSH1 0x40 MLOAD PUSH2 0xF6 SWAP2 SWAP1 PUSH2 0x64E JUMP JUMPDEST PUSH1 0x40 MLOAD DUP1 SWAP2 SUB SWAP1 RETURN JUMPDEST CALLVALUE DUP1 ISZERO PUSH2 0x10A JUMPI PUSH0 DUP1 REVERT JUMPDEST POP PUSH2 0x113 PUSH2 0x44B JUMP JUMPDEST PUSH1 0x40 MLOAD PUSH2 0x120 SWAP2 SWAP1 PUSH2 0x64E JUMP JUMPDEST PUSH1 0x40 MLOAD DUP1 SWAP2 SUB SWAP1 RETURN JUMPDEST CALLVALUE DUP1 ISZERO PUSH2 0x134 JUMPI PUSH0 DUP1 REVERT JUMPDEST POP PUSH2 0x14F PUSH1 0x4 DUP1 CALLDATASIZE SUB DUP2 ADD SWAP1 PUSH2 0x14A SWAP2 SWAP1 PUSH2 0x614 JUMP JUMPDEST PUSH2 0x48F JUMP JUMPDEST PUSH1 0x40 MLOAD PUSH2 0x15C SWAP2 SWAP1 PUSH2 0x64E JUMP JUMPDEST PUSH1 0x40 MLOAD DUP1 SWAP2 SUB SWAP1 RETURN JUMPDEST CALLVALUE DUP1 ISZERO PUSH2 0x170 JUMPI PUSH0 DUP1 REVERT JUMPDEST POP PUSH2 0x179 PUSH2 0x4A4 JUMP JUMPDEST PUSH1 0x40 MLOAD PUSH2 0x186 SWAP2 SWAP1 PUSH2 0x64E JUMP JUMPDEST PUSH1 0x40 MLOAD DUP1 SWAP2 SUB SWAP1 RETURN JUMPDEST PUSH2 0x197 PUSH2 0x4E7 JUMP JUMPDEST STOP JUMPDEST PUSH0 CALLER SWAP1 POP PUSH1 0x64 PUSH1 0xA PUSH1 0x2 SLOAD PUSH2 0x1AE SWAP2 SWAP1 PUSH2 0x694 JUMP JUMPDEST PUSH2 0x1B8 SWAP2 SWAP1 PUSH2 0x702 JUMP JUMPDEST SELFBALANCE GT ISZERO PUSH2 0x29E JUMPI DUP2 PUSH0 DUP1 DUP4 PUSH20 0xFFFFFFFFFFFFFFFFFFFFFFFFFFFFFFFFFFFFFFFF AND PUSH20 0xFFFFFFFFFFFFFFFFFFFFFFFFFFFFFFFFFFFFFFFF AND DUP2 MSTORE PUSH1 0x20 ADD SWAP1 DUP2 MSTORE PUSH1 0x20 ADD PUSH0 KECCAK256 SLOAD LT PUSH2 0x299 JUMPI DUP2 PUSH0 DUP1 CALLER PUSH20 0xFFFFFFFFFFFFFFFFFFFFFFFFFFFFFFFFFFFFFFFF AND PUSH20 0xFFFFFFFFFFFFFFFFFFFFFFFFFFFFFFFFFFFFFFFF AND DUP2 MSTORE PUSH1 0x20 ADD SWAP1 DUP2 MSTORE PUSH1 0x20 ADD PUSH0 KECCAK256 PUSH0 DUP3 DUP3 SLOAD PUSH2 0x24D SWAP2 SWAP1 PUSH2 0x732 JUMP JUMPDEST SWAP3 POP POP DUP2 SWAP1 SSTORE POP DUP1 PUSH20 0xFFFFFFFFFFFFFFFFFFFFFFFFFFFFFFFFFFFFFFFF AND PUSH2 0x8FC DUP4 SWAP1 DUP2 ISZERO MUL SWAP1 PUSH1 0x40 MLOAD PUSH0 PUSH1 0x40 MLOAD DUP1 DUP4 SUB DUP2 DUP6 DUP9 DUP9 CALL SWAP4 POP POP POP POP ISZERO DUP1 ISZERO PUSH2 0x297 JUMPI RETURNDATASIZE PUSH0 DUP1 RETURNDATACOPY RETURNDATASIZE PUSH0 REVERT JUMPDEST POP JUMPDEST PUSH2 0x365 JUMP JUMPDEST PUSH1 0x1 PUSH0 DUP3 PUSH20 0xFFFFFFFFFFFFFFFFFFFFFFFFFFFFFFFFFFFFFFFF AND PUSH20 0xFFFFFFFFFFFFFFFFFFFFFFFFFFFFFFFFFFFFFFFF AND DUP2 MSTORE PUSH1 0x20 ADD SWAP1 DUP2 MSTORE PUSH1 0x20 ADD PUSH0 KECCAK256 SLOAD PUSH0 DUP1 DUP4 PUSH20 0xFFFFFFFFFFFFFFFFFFFFFFFFFFFFFFFFFFFFFFFF AND PUSH20 0xFFFFFFFFFFFFFFFFFFFFFFFFFFFFFFFFFFFFFFFF AND DUP2 MSTORE PUSH1 0x20 ADD SWAP1 DUP2 MSTORE PUSH1 0x20 ADD PUSH0 KECCAK256 SLOAD PUSH2 0x323 SWAP2 SWAP1 PUSH2 0x732 JUMP JUMPDEST DUP3 LT PUSH2 0x364 JUMPI PUSH1 0x40 MLOAD PUSH32 0x8C379A000000000000000000000000000000000000000000000000000000000 DUP2 MSTORE PUSH1 0x4 ADD PUSH2 0x35B SWAP1 PUSH2 0x7E5 JUMP JUMPDEST PUSH1 0x40 MLOAD DUP1 SWAP2 SUB SWAP1 REVERT JUMPDEST JUMPDEST POP POP JUMP JUMPDEST PUSH0 CALLER SWAP1 POP DUP2 SELFBALANCE LT ISZERO DUP1 ISZERO PUSH2 0x396 JUMPI POP PUSH1 0x64 PUSH1 0x5 PUSH1 0x2 SLOAD PUSH2 0x389 SWAP2 SWAP1 PUSH2 0x694 JUMP JUMPDEST PUSH2 0x393 SWAP2 SWAP1 PUSH2 0x702 JUMP JUMPDEST SELFBALANCE GT JUMPDEST ISZERO PUSH2 0x433 JUMPI DUP2 PUSH1 0x1 PUSH0 CALLER PUSH20 0xFFFFFFFFFFFFFFFFFFFFFFFFFFFFFFFFFFFFFFFF AND PUSH20 0xFFFFFFFFFFFFFFFFFFFFFFFFFFFFFFFFFFFFFFFF AND DUP2 MSTORE PUSH1 0x20 ADD SWAP1 DUP2 MSTORE PUSH1 0x20 ADD PUSH0 KECCAK256 PUSH0 DUP3 DUP3 SLOAD PUSH2 0x3E7 SWAP2 SWAP1 PUSH2 0x803 JUMP JUMPDEST SWAP3 POP POP DUP2 SWAP1 SSTORE POP DUP1 PUSH20 0xFFFFFFFFFFFFFFFFFFFFFFFFFFFFFFFFFFFFFFFF AND PUSH2 0x8FC DUP4 SWAP1 DUP2 ISZERO MUL SWAP1 PUSH1 0x40 MLOAD PUSH0 PUSH1 0x40 MLOAD DUP1 DUP4 SUB DUP2 DUP6 DUP9 DUP9 CALL SWAP4 POP POP POP POP ISZERO DUP1 ISZERO PUSH2 0x431 JUMPI RETURNDATASIZE PUSH0 DUP1 RETURNDATACOPY RETURNDATASIZE PUSH0 REVERT JUMPDEST POP JUMPDEST POP POP JUMP JUMPDEST PUSH0 PUSH1 0x20 MSTORE DUP1 PUSH0 MSTORE PUSH1 0x40 PUSH0 KECCAK256 PUSH0 SWAP2 POP SWAP1 POP SLOAD DUP2 JUMP JUMPDEST PUSH0 PUSH1 0x1 PUSH0 CALLER PUSH20 0xFFFFFFFFFFFFFFFFFFFFFFFFFFFFFFFFFFFFFFFF AND PUSH20 0xFFFFFFFFFFFFFFFFFFFFFFFFFFFFFFFFFFFFFFFF AND DUP2 MSTORE PUSH1 0x20 ADD SWAP1 DUP2 MSTORE PUSH1 0x20 ADD PUSH0 KECCAK256 SLOAD SWAP1 POP SWAP1 JUMP JUMPDEST PUSH1 0x1 PUSH1 0x20 MSTORE DUP1 PUSH0 MSTORE PUSH1 0x40 PUSH0 KECCAK256 PUSH0 SWAP2 POP SWAP1 POP SLOAD DUP2 JUMP JUMPDEST PUSH0 DUP1 PUSH0 CALLER PUSH20 0xFFFFFFFFFFFFFFFFFFFFFFFFFFFFFFFFFFFFFFFF AND PUSH20 0xFFFFFFFFFFFFFFFFFFFFFFFFFFFFFFFFFFFFFFFF AND DUP2 MSTORE PUSH1 0x20 ADD SWAP1 DUP2 MSTORE PUSH1 0x20 ADD PUSH0 KECCAK256 SLOAD SWAP1 POP SWAP1 JUMP JUMPDEST PUSH0 CALLVALUE SWAP1 POP DUP1 PUSH0 DUP1 CALLER PUSH20 0xFFFFFFFFFFFFFFFFFFFFFFFFFFFFFFFFFFFFFFFF AND PUSH20 0xFFFFFFFFFFFFFFFFFFFFFFFFFFFFFFFFFFFFFFFF AND DUP2 MSTORE PUSH1 0x20 ADD SWAP1 DUP2 MSTORE PUSH1 0x20 ADD PUSH0 KECCAK256 PUSH0 DUP3 DUP3 SLOAD PUSH2 0x536 SWAP2 SWAP1 PUSH2 0x803 JUMP JUMPDEST SWAP3 POP POP DUP2 SWAP1 SSTORE POP DUP1 PUSH1 0x2 PUSH0 DUP3 DUP3 SLOAD PUSH2 0x54E SWAP2 SWAP1 PUSH2 0x803 JUMP JUMPDEST SWAP3 POP POP DUP2 SWAP1 SSTORE POP POP JUMP JUMPDEST PUSH0 DUP1 REVERT JUMPDEST PUSH0 DUP2 SWAP1 POP SWAP2 SWAP1 POP JUMP JUMPDEST PUSH2 0x56E DUP2 PUSH2 0x55C JUMP JUMPDEST DUP2 EQ PUSH2 0x578 JUMPI PUSH0 DUP1 REVERT JUMPDEST POP JUMP JUMPDEST PUSH0 DUP2 CALLDATALOAD SWAP1 POP PUSH2 0x589 DUP2 PUSH2 0x565 JUMP JUMPDEST SWAP3 SWAP2 POP POP JUMP JUMPDEST PUSH0 PUSH1 0x20 DUP3 DUP5 SUB SLT ISZERO PUSH2 0x5A4 JUMPI PUSH2 0x5A3 PUSH2 0x558 JUMP JUMPDEST JUMPDEST PUSH0 PUSH2 0x5B1 DUP5 DUP3 DUP6 ADD PUSH2 0x57B JUMP JUMPDEST SWAP2 POP POP SWAP3 SWAP2 POP POP JUMP JUMPDEST PUSH0 PUSH20 0xFFFFFFFFFFFFFFFFFFFFFFFFFFFFFFFFFFFFFFFF DUP3 AND SWAP1 POP SWAP2 SWAP1 POP JUMP JUMPDEST PUSH0 PUSH2 0x5E3 DUP3 PUSH2 0x5BA JUMP JUMPDEST SWAP1 POP SWAP2 SWAP1 POP JUMP JUMPDEST PUSH2 0x5F3 DUP2 PUSH2 0x5D9 JUMP JUMPDEST DUP2 EQ PUSH2 0x5FD JUMPI PUSH0 DUP1 REVERT JUMPDEST POP JUMP JUMPDEST PUSH0 DUP2 CALLDATALOAD SWAP1 POP PUSH2 0x60E DUP2 PUSH2 0x5EA JUMP JUMPDEST SWAP3 SWAP2 POP POP JUMP JUMPDEST PUSH0 PUSH1 0x20 DUP3 DUP5 SUB SLT ISZERO PUSH2 0x629 JUMPI PUSH2 0x628 PUSH2 0x558 JUMP JUMPDEST JUMPDEST PUSH0 PUSH2 0x636 DUP5 DUP3 DUP6 ADD PUSH2 0x600 JUMP JUMPDEST SWAP2 POP POP SWAP3 SWAP2 POP POP JUMP JUMPDEST PUSH2 0x648 DUP2 PUSH2 0x55C JUMP JUMPDEST DUP3 MSTORE POP POP JUMP JUMPDEST PUSH0 PUSH1 0x20 DUP3 ADD SWAP1 POP PUSH2 0x661 PUSH0 DUP4 ADD DUP5 PUSH2 0x63F JUMP JUMPDEST SWAP3 SWAP2 POP POP JUMP JUMPDEST PUSH32 0x4E487B7100000000000000000000000000000000000000000000000000000000 PUSH0 MSTORE PUSH1 0x11 PUSH1 0x4 MSTORE PUSH1 0x24 PUSH0 REVERT JUMPDEST PUSH0 PUSH2 0x69E DUP3 PUSH2 0x55C JUMP JUMPDEST SWAP2 POP PUSH2 0x6A9 DUP4 PUSH2 0x55C JUMP JUMPDEST SWAP3 POP DUP3 DUP3 MUL PUSH2 0x6B7 DUP2 PUSH2 0x55C JUMP JUMPDEST SWAP2 POP DUP3 DUP3 DIV DUP5 EQ DUP4 ISZERO OR PUSH2 0x6CE JUMPI PUSH2 0x6CD PUSH2 0x667 JUMP JUMPDEST JUMPDEST POP SWAP3 SWAP2 POP POP JUMP JUMPDEST PUSH32 0x4E487B7100000000000000000000000000000000000000000000000000000000 PUSH0 MSTORE PUSH1 0x12 PUSH1 0x4 MSTORE PUSH1 0x24 PUSH0 REVERT JUMPDEST PUSH0 PUSH2 0x70C DUP3 PUSH2 0x55C JUMP JUMPDEST SWAP2 POP PUSH2 0x717 DUP4 PUSH2 0x55C JUMP JUMPDEST SWAP3 POP DUP3 PUSH2 0x727 JUMPI PUSH2 0x726 PUSH2 0x6D5 JUMP JUMPDEST JUMPDEST DUP3 DUP3 DIV SWAP1 POP SWAP3 SWAP2 POP POP JUMP JUMPDEST PUSH0 PUSH2 0x73C DUP3 PUSH2 0x55C JUMP JUMPDEST SWAP2 POP PUSH2 0x747 DUP4 PUSH2 0x55C JUMP JUMPDEST SWAP3 POP DUP3 DUP3 SUB SWAP1 POP DUP2 DUP2 GT ISZERO PUSH2 0x75F JUMPI PUSH2 0x75E PUSH2 0x667 JUMP JUMPDEST JUMPDEST SWAP3 SWAP2 POP POP JUMP JUMPDEST PUSH0 DUP3 DUP3 MSTORE PUSH1 0x20 DUP3 ADD SWAP1 POP SWAP3 SWAP2 POP POP JUMP JUMPDEST PUSH32 0x536F6C6F20707565646573207361636172206C61206469666572656E63696120 PUSH0 DUP3 ADD MSTORE PUSH32 0x656E747261207475732064657564617320792074752073616C646F0000000000 PUSH1 0x20 DUP3 ADD MSTORE POP JUMP JUMPDEST PUSH0 PUSH2 0x7CF PUSH1 0x3B DUP4 PUSH2 0x765 JUMP JUMPDEST SWAP2 POP PUSH2 0x7DA DUP3 PUSH2 0x775 JUMP JUMPDEST PUSH1 0x40 DUP3 ADD SWAP1 POP SWAP2 SWAP1 POP JUMP JUMPDEST PUSH0 PUSH1 0x20 DUP3 ADD SWAP1 POP DUP2 DUP2 SUB PUSH0 DUP4 ADD MSTORE PUSH2 0x7FC DUP2 PUSH2 0x7C3 JUMP JUMPDEST SWAP1 POP SWAP2 SWAP1 POP JUMP JUMPDEST PUSH0 PUSH2 0x80D DUP3 PUSH2 0x55C JUMP JUMPDEST SWAP2 POP PUSH2 0x818 DUP4 PUSH2 0x55C JUMP JUMPDEST SWAP3 POP DUP3 DUP3 ADD SWAP1 POP DUP1 DUP3 GT ISZERO PUSH2 0x830 JUMPI PUSH2 0x82F PUSH2 0x667 JUMP JUMPDEST JUMPDEST SWAP3 SWAP2 POP POP JUMP INVALID LOG2 PUSH5 0x6970667358 0x22 SLT KECCAK256 DUP7 PUSH13 0xF04E438E8A6B071893F68436A8 SDIV SWAP2 PUSH22 0x3D5971AA4C01391946024A77692464736F6C63430008 BYTE STOP CALLER "
				},
				"gasEstimates": {
					"creation": {
						"codeDepositCost": "431200",
						"executionCost": "22555",
						"totalCost": "453755"
					},
					"external": {
						"borrowers(address)": "2824",
						"checkBalance()": "2563",
						"checkDebt()": "2519",
						"clients(address)": "2846",
						"deposit()": "infinite",
						"loan(uint256)": "infinite",
						"withdraw(uint256)": "infinite"
					}
				},
				"methodIdentifiers": {
					"borrowers(address)": "bf5d50c4",
					"checkBalance()": "c71daccb",
					"checkDebt()": "65ee041b",
					"clients(address)": "61eed2a9",
					"deposit()": "d0e30db0",
					"loan(uint256)": "365a5306",
					"withdraw(uint256)": "2e1a7d4d"
				}
			},
			"storageLayout": {
				"storage": [
					{
						"astId": 5,
						"contract": "contracts/DBank.sol:DBnank",
						"label": "clients",
						"offset": 0,
						"slot": "0",
						"type": "t_mapping(t_address,t_uint256)"
					},
					{
						"astId": 9,
						"contract": "contracts/DBank.sol:DBnank",
						"label": "borrowers",
						"offset": 0,
						"slot": "1",
						"type": "t_mapping(t_address,t_uint256)"
					},
					{
						"astId": 11,
						"contract": "contracts/DBank.sol:DBnank",
						"label": "bankBlance",
						"offset": 0,
						"slot": "2",
						"type": "t_uint256"
					}
				],
				"types": {
					"t_address": {
						"encoding": "inplace",
						"label": "address",
						"numberOfBytes": "20"
					},
					"t_mapping(t_address,t_uint256)": {
						"encoding": "mapping",
						"key": "t_address",
						"label": "mapping(address => uint256)",
						"numberOfBytes": "32",
						"value": "t_uint256"
					},
					"t_uint256": {
						"encoding": "inplace",
						"label": "uint256",
						"numberOfBytes": "32"
					}
				}
			},
			"userdoc": {
				"kind": "user",
				"methods": {
					"withdraw(uint256)": {
						"notice": "Para evitar una situacion de corralito, si el dinero que hay en el banco llega a menos del 10% del total depositado por los clientes, estos solo podran retirar la cantidad resultante de restar sus deudas a su dinero depositado."
					}
				},
				"version": 1
			}
		}
	}
}